:1000000072C096C095C094C093C092C040C490C0C6
:100010008FC09CC38DC009C4E3C38AC089C088C097
:1000200087C086C085C008000000BE922449123EE9
:10003000ABAAAA2ABECDCCCC4C3E00000080BEAB01
:10004000AAAAAA3E00000000BF000000803F0000F6
:10005000000000084178D3BB4387D1133D190E3C03
:10006000C3BD4282AD2B3E68EC8276BED98FE1A93A
:100070003E4C80EFFFBE01C4FF7F3F000000000048
:1000800000000000360033003000000000003700A0
:100090003400310000000000380035003200040454
:1000A0000404040404040202020202020303030320
:1000B000030302020301020408102040800102042D
:1000C00008102001020408102040804000000000B9
:1000D0000000000000040507000000000000000010
:1000E00000000000F50411241FBECFE5D4E0DEBF00
:1000F000CDBF10E0A0E6B0E0EAEBF6E102C005906B
:100100000D92AE3FB107D9F721E0AEEFB0E001C0EC
:100110001D92AD3CB207E1F710E0C3E7D0E003C0A9
:100120002197FE01B9DAC237D107D1F7B9D4C3CAD2
:1001300067CFE091CA01EC3078F54091CB0128E817
:1001400030E0241B310947FD3395220F331F220F66
:10015000331F8217930784F04091CC0128E532E0E9
:10016000241B310947FD3395220F331F220F331F04
:10017000821793070CF49C014FB7F8948E2F90E0F0
:1001800022503109FC01EE0FFF1FE80FF91FEB555C
:10019000FE4F328321834FBF0895853041F0873071
:1001A00049F0843051F48FB58F778FBD08958FB5A6
:1001B0008F7DFBCF85B58F7D85BD08951F93CF9330
:1001C000DF93282F30E0F901E453FF4F8491F901C8
:1001D000EB54FF4FD491F901E256FF4FC491CC2369
:1001E000A1F0162F8111D9DFEC2FF0E0EE0FFF1FE9
:1001F000EC56FF4FA591B4918FB7F894EC91111183
:1002000008C0D095DE23DC938FBFDF91CF911F9183
:100210000895DE2BF8CFCF93DF9390E0FC01EB54F1
:10022000FF4F249182569F4FFC0184918823D1F087
:1002300090E0880F991FFC01E657FF4FA591B491FC
:10024000FC01EC56FF4FC591D49161110EC09FB7D0
:10025000F8948C91E22FE0958E238C932881E223F1
:10026000E8839FBFDF91CF9108958FB7F894EC9109
:10027000E22BEC938FBFF6CF1F93CF93DF93182F12
:10028000EB0161E0C8DF209731F460E0812FDF915E
:10029000CF911F9193CFCF3FD10511F461E0F6CFFD
:1002A000E12FF0E0E453FF4FE491E53069F0E730EF
:1002B00089F0E430A1F48FB580688FBDDBBDCABD85
:1002C000DF91CF911F9108958FB580628FBDD9BD09
:1002D000C8BDF6CF85B5806285BDC3BDF1CFC0383E
:1002E000D105E4F6D2CF883020F08D3008F48DE0CF
:1002F0008E508770806487B9369A3699FECF84B164
:1003000095B108953FB7F89480910401909105014B
:10031000A0910601B091070122B708B600FE05C002
:100320002F3F19F00196A11DB11D3FBFBA2FA92F74
:10033000982F8827BC01CD01620F711D811D911D71
:1003400043E0660F771F881F991F4A95D1F70895DC
:100350008F929F92AF92BF92CF92DF92EF92FF92D5
:100360004B015C01CFDF6B017C01CCDF6C197D0997
:100370008E099F09683E734081059105B0F321E025
:10038000821A9108A108B10888EEC80E83E0D81E31
:10039000E11CF11C81149104A104B10431F7FF9018
:1003A000EF90DF90CF90BF90AF909F908F90089587
:1003B000AF92BF92CF92DF92EF92FF920F931F9373
:1003C000CF93DF936C017B018B01040F151FEB01B1
:1003D0005E01AE18BF08C017D10759F06991D60168
:1003E000ED91FC910190F081E02DC6010995892BDA
:1003F00079F7C501DF91CF911F910F91FF90EF9099
:10040000DF90CF90BF90AF900895FC01538D448D45
:10041000252F30E0842F90E0821B930B541710F0AF
:10042000CF96089501970895FC01918D828D9817BC
:1004300061F0A28DAE0FBF2FB11D5D968C91928D94
:100440009F5F9F73928F90E008958FEF9FEF0895C5
:10045000FC01918D828D981731F0828DE80FF11D8E
:10046000858D90E008958FEF9FEF0895FC01918DA9
:10047000228D892F90E0805C9F4F821B91098F73A2
:100480009927089588E091E0F1DF21E0892B09F4B4
:1004900020E0822F089580E090E0892B19F0F2DFB0
:1004A0008111AECD0895FC01A48DA80FB92FB11D07
:1004B000A35ABF4F2C91848D90E001968F7399279A
:1004C000848FA689B7892C93A089B1898C91827475
:1004D0008C93938D848D981306C00288F389E02D48
:1004E00080818F7D80830895EF92FF920F931F93F9
:1004F000CF93DF93EC0181E0888F9B8D8C8D9813D7
:1005000019C0E889F989808185FF14C09FB7F894E4
:10051000EE89FF896083E889F9898081827480830C
:100520009FBF81E090E0DF91CF911F910F91FF90ED
:10053000EF900895F62E0B8D10E00F5F1F4F0F7395
:100540001127E02E8C8D8E110BC00FB607FCFACF51
:10055000E889F989808185FFF5CFCE01A4DFF2CF4C
:10056000EB8DEC0FFD2FF11DE35AFF4FF0829FB78B
:10057000F8940B8FEA89FB8980818062D0CFCF937A
:10058000DF93EC01888D8823B1F0AA89BB89E889C3
:10059000F9898C9185FD03C0808186FD0CC00FB662
:1005A00007FCF7CF8C9185FFF2CF808185FFEDCFDF
:1005B000CE0179DFEACFDF91CF9108958EE093DE0F
:1005C0008D3721E0920764F58F3521E092070CF01A
:1005D00057C08D3D9105B4F4843B91050CF04AC0A1
:1005E0008B3591054CF4823391050CF041C04F9747
:1005F00008F450C080E008958E569109C397D0F753
:1006000083E30895813421E09207C4F58E3021E020
:10061000920794F5865E91094F9760F784E30895F9
:100620008B3E21E0920794F4863D21E0920764F529
:10063000893B21E092072CF48B3991401CF188E32F
:100640000895823D9140B4F689E30895833122E014
:1006500092072CF48F3F9140CCF080E308958732CD
:1006600022E09207ACF08D33924024F684E40895A2
:1006700082E3089581E4089585E3089586E308956B
:1006800082E4089587E3089583E408958AE2089553
:1006900083E2089581E30895FC0101900020E9F7C9
:1006A0003197AF01481B590BBC0188E091E080CE27
:1006B0008F929F92AF92BF920F931F93CF93DF932E
:1006C000CDB7DEB7A1970FB6F894DEBF0FBECDBF92
:1006D00019A2423008F44AE08E010F5D1F4F842EAC
:1006E000912CB12CA12CA5019401F9D4E62FB901CC
:1006F000CA01EA30ECF4E05DD801EE938D01232BC2
:10070000242B252B81F790E080E0109711F0CD018C
:10071000C3DFA1960FB6F894DEBF0FBECDBFDF9149
:10072000CF911F910F91BF90AF909F908F900895A0
:10073000E95CE2CFCF93DF93AFDFEC0182E790E09B
:10074000ABDF8C0F9D1FDF91CF9108951F920F9209
:100750000FB60F9211242F933F938F939F93AF93D4
:10076000BF938091000190910101A0910201B0918D
:1007700003013091FF0026E0230F2D3768F129E8AF
:10078000230F0396A11DB11D2093FF00809300014C
:1007900090930101A0930201B093030180910401A1
:1007A00090910501A0910601B09107010196A11D4C
:1007B000B11D8093040190930501A0930601B093AD
:1007C0000701BF91AF919F918F913F912F910F9012
:1007D0000FBE0F901F9018950296A11DB11DD4CF8A
:1007E0001F920F920FB60F9211242F933F934F93A6
:1007F0005F936F937F938F939F93AF93BF93EF9389
:10080000FF9388E091E04FDEFF91EF91BF91AF91B0
:100810009F918F917F916F915F914F913F912F9118
:100820000F900FBE0F901F9018951F920F920FB64A
:100830000F9211242F938F939F93EF93FF93E09147
:100840001801F09119018081E0911E01F0911F01C2
:1008500082FD1BC09081809121018F5F8F73209159
:100860002201821741F0E0912101F0E0E85FFE4FA4
:10087000958F80932101FF91EF919F918F912F91FF
:100880000F900FBE0F901F9018958081F4CF1F928C
:100890000F920FB60F9211242F933F934F935F93B4
:1008A0006F937F938F939F93AF93BF93CF93DF9378
:1008B000EF93FF938091FE00C091C901D0E087FFC4
:1008C0001EC01DBC1CBC8091FE008F5F8093FE008B
:1008D0008091FE00082E000C990B8C179D0724F4C4
:1008E0008091FE008C309CF18CB59DB504968032D1
:1008F0009E4408F472C08CB59DB5049670C080917A
:10090000FE00082E000C990B8C179D07E4F6E09171
:10091000FE008E2FEE0F990BFC01EE0FFF1FE80F6C
:10092000F91FEB55FE4F808186FFCDCFE091FE0091
:100930008E2FEE0F990BFC01EE0FFF1FE80FF91F32
:10094000EB55FE4F808160E08F7338DCBCCF2CB557
:100950003DB5E091FE008E2FEE0F990BFC01EE0FDE
:10096000FF1FE80FF91FEB55FE4F81819281820F27
:10097000931F9BBD8ABDE091FE008E2FEE0F990B59
:10098000FC01EE0FFF1FE80FF91FEB55FE4F8081B2
:1009900086FF10C0E091FE008E2FEE0F990BFC0138
:1009A000EE0FFF1FE80FF91FEB55FE4F808161E04E
:1009B0008F7304DCFF91EF91DF91CF91BF91AF91E5
:1009C0009F918F917F916F915F914F913F912F9167
:1009D0000F900FBE0F901F90189580E29EE49BBD74
:1009E0008ABD8FEF8093FE00E5CF10920B0110922D
:1009F0000A0188EE93E0A0E0B0E080930C019093B0
:100A00000D01A0930E01B0930F0184E690E0909346
:100A100009018093080180E490E090931501809390
:100A2000140129E230E030931701209316012BE2E4
:100A300030E030931901209318012AE230E030931E
:100A40001B0120931A0190931D0180931C018CE2DD
:100A500090E090931F0180931E011092210110924B
:100A6000220110922301109224018091C9018C303F
:100A700098F491E0980F9093C9018093CA0190E097
:100A8000FC01EE0FFF1FE80FF91FEB55FE4F8CED39
:100A900095E09283818308958FEF8093CA01089532
:100AA000CF93DF93CDB7DEB72B970FB6F894DEBFA9
:100AB0000FBECDBF789483B7836083BF89B7816051
:100AC00089BF92E09EBD8EB581608EBD8FB581607D
:100AD0008FBD85B5846085BD85B5806485BD86E89C
:100AE00086B91AB8E0911801F09119019083E0914C
:100AF0001401F09115011082E0911601F091170197
:100B000097E6908310922001E0911C01F0911D0165
:100B10008083E0911A01F0911B01808188698083B4
:100B2000E0911A01F0911B0180818F7D808361E04B
:100B300088E071DB61E089E06EDB61E08CE06BDB1B
:100B400061E08BE068DB60E080E165DB8091CA01F9
:100B50008C3008F04BC061E08AE05DDB8091CA0117
:100B6000282F30E0F901EE0FFF1FE20FF31FEB55C6
:100B7000FE4F9081907C9A6090831092CB011092EE
:100B8000CC012CE0622F70D5829FB001112430E09F
:100B900020E0AB01420F531FFA01EE0FFF1FE40FDD
:100BA000F51FEB55FE4F908196FD12C02F5F3F4F12
:100BB0002C30310571F781110BC01FBC82E08EBD56
:100BC0001DBC1CBC88B7806188BF89B7806189BFA4
:100BD000E091CA018E2F90E0FC01EE0FFF1FE80F9D
:100BE000F91FEB55FE4F80818064808360E08BE0CD
:100BF000E5DA61E08DE00FDB61E085E10CDB61E0CF
:100C000084E109DB60E082E106DB61E083E003DB95
:100C100068E873E180E090E09BDB9E012B5F3F4F33
:100C20003F832E8378E8272E312CEEEDF0E084917F
:100C3000E7ECF0E00491E0EBF0E01491112319F1FE
:100C40008111ABDAE12FF0E0EE0FFF1FE058FF4F0C
:100C5000A591B4918C910823B1F085E790E06ADD0D
:100C60006FEF70E08BE008DB68EC70E080E090E014
:100C70006FDB70E060E08BE0FFDA68EC70E080E052
:100C800090E066DBD2CF89E990E054DD8E010F5F02
:100C90001F4F780193DCF801808360816623D1F3D4
:100CA00088E091E021DC6CE271E080E090E050DBD4
:100CB0000F5F1F4F2E813F810217130759F71D82C7
:100CC0006AEA70E0C701EED48C01892B09F0D2C129
:100CD0008091CB016101C81AD10887FDD394CC0C57
:100CE000DD1CCC0CDD1C0D2C000CEE08FF088091E7
:100CF000CC0128E532E0281B310987FD3395220F0E
:100D0000331F220F331F032E000C440B550B2C19DD
:100D10003D094E095F09AAE5B0E0D7D124EB30E0E8
:100D200040E050E0B6D1DA01C9018C0D9D1DAE1D29
:100D3000BF1DFFD96CED75E080E090E009DB80918C
:100D4000CB01A101481B510987FD5395CA01880FAA
:100D5000991F880F991FEDD98FEA90E0EBDC80E1B5
:100D6000C2DA7C0181EC90E097DC47010F2C000C8B
:100D7000AA08BB084AE0C501B401B7FE0CC06DE289
:100D800088E091E0B1DB66277727CB016819790904
:100D90008A099B094AE08CDC82E790E07DDC9701C0
:100DA000A1E0BFEF6DD42FEF33E040E050E071D110
:100DB000CA01B90161507F4F8F4F9F4F8BE05CDAC2
:100DC00085E0E82EF12C81E18EDA080F191F6AE028
:100DD00070E080E090E0BCDA51E0E51AF10899F7A4
:100DE000B801110F880B990BACD220E030E040EA3B
:100DF00050E40CD29B01AC0160E070EC8FE794E40E
:100E000005D220E030E040E85FE397D19B01AC01E0
:100E100060E070E48CE196E4F9D120E030E44CE14C
:100E200056E4F4D147D320E030E443E555E4EED175
:100E30002FE03FEC4BE55BE381D19B01AC0160E02F
:100E400070E080E89FE3E2D123E333E948E853E42C
:100E500074D144D29B01770F440B550B28873987F7
:100E60004A875B87CA01B9016CD26B017C018FECA8
:100E700090E012DCA7019601C701B601BED388231A
:100E8000A1F18DED90E008DC82E790E005DC20E048
:100E900030E040EF51E4C701B60103D318160CF05F
:100EA000A2C060E084E18AD961E08DE087D960E08A
:100EB00085E184D90FEF10E061E088E07FD960E040
:100EC00089E07CD9B8018CE0D7D968E873E180E08B
:100ED00090E03EDA40E050E0452B09F4A6CED2DAAD
:100EE000882309F4A2CE8CD8A0CE46015701E894FD
:100EF000B7F82FEF3FEF4FE75FE7C501B4017DD3B0
:100F000081110CC02FEF3FEF4FE75FE7C501B40140
:100F100079D118161CF481EE90E0B5CF2FEF3FEF9A
:100F20004FE75FE4C701B601BCD218161CF485EE8A
:100F300090E0A9CF2FEF3FEF4FE75FECC701B6017D
:100F400061D187FDF4CF20E030E0A901C701B601EF
:100F500059D187FF45C06DE288E091E0C5DAC7014D
:100F6000B60190582AE037ED43EA5BE3E7D02B0166
:100F70003C01B9D14B015C01E2D19B01AC01C30141
:100F8000B201DBD02B013C014AE0C501B40190DB8A
:100F90006EE288E091E0A8DA20E030E040E251E43F
:100FA000C301B201C7D22B013C019DD14B01B12C31
:100FB000A12C4AE0C501B4017BDBC501B401BFD15E
:100FC0009B01AC01C301B201B8D020E030E040E2A7
:100FD00051E4B0D288D190E080E04AE069DB54CFA0
:100FE000C701B601BFCF20E030E040EA51E4C701BD
:100FF000B60157D218164CF520E030E040EF51E42E
:10100000C701B601FFD0181604F161E084E1D6D81B
:1010100060E08DE0D3D860E085E1D0D828853985BF
:101020004A855B852451310941095109AFE7B0E098
:101030004CD02AE030E040E050E02BD089019A010A
:1010400000581F4F2F4F3F4F37CF60E084E1B6D895
:1010500060E08DE0B3D861E085E1B0D820E030E019
:1010600040EA51E4C701B6011CD21816BCF200E8F0
:1010700010E022CF89EE90E05DDB61E083E09ED856
:1010800064EF71E080E090E063D960E083E096D89F
:1010900021CF052E97FB16F400940FD057FD05D0F5
:1010A0001ED007FC02D046F408C0509540953095FC
:1010B00021953F4F4F4F5F4F0895909580957095C4
:1010C00061957F4F8F4F9F4F08952BD0A59F900D17
:1010D000B49F900DA49F800D911D11240895A1E24D
:1010E0001A2EAA1BBB1BFD010DC0AA1FBB1FEE1FA2
:1010F000FF1FA217B307E407F50720F0A21BB30BED
:10110000E40BF50B661F771F881F991F1A9469F768
:1011100060957095809590959B01AC01BD01CF01C4
:101120000895A29FB001B39FC001A39F01D0B29FB9
:10113000700D811D1124911D08955058BB27AA27B9
:101140000ED075C166D130F06BD120F031F49F3FE5
:1011500011F41EF45BC10EF4E095E7FB51C1E92FD9
:1011600077D180F3BA17620773078407950718F0E1
:1011700071F49EF58FC10EF4E0950B2EBA2FA02DC1
:101180000B01B90190010C01CA01A0011124FF2734
:10119000591B99F0593F50F4503E68F11A16F0402F
:1011A000A22F232F342F4427585FF3CF469537952E
:1011B0002795A795F0405395C9F77EF41F16BA0BF3
:1011C000620B730B840BBAF09150A1F0FF0FBB1FA1
:1011D000661F771F881FC2F70EC0BA0F621F731FEA
:1011E000841F48F4879577956795B795F7959E3F47
:1011F00008F0B3CF9395880F08F09927EE0F9795D5
:1012000087950895D9D008F481E008950CD00FC1D6
:1012100007D140F0FED030F021F45F3F19F0F0C06C
:10122000511139C1F3C014D198F39923C9F355234F
:10123000B1F3951B550BBB27AA27621773078407C9
:1012400038F09F5F5F4F220F331F441FAA1FA9F37F
:1012500033D00E2E3AF0E0E830D091505040E69571
:10126000001CCAF729D0FE2F27D0660F771F881FD2
:10127000BB1F261737074807AB07B0E809F0BB0BC1
:10128000802DBF01FF2793585F4F2AF09E3F5105E5
:1012900068F0B6C000C15F3FECF3983EDCF3869582
:1012A00077956795B795F7959F5FC9F7880F911D5B
:1012B0009695879597F90895E1E0660F771F881F47
:1012C000BB1F621773078407BA0720F0621B730BFA
:1012D000840BBA0BEE1F88F7E095089504D068944C
:1012E000B111D9C00895BCD088F09F5790F0B92FA4
:1012F0009927B751A0F0D1F0660F771F881F991F6B
:101300001AF0BA95C9F712C0B13081F0C3D0B1E07C
:101310000895C0C0672F782F8827B85F39F0B93F8C
:10132000CCF3869577956795B395D9F73EF490956C
:101330008095709561957F4F8F4F9F4F0895E894EA
:1013400009C097FB3EF490958095709561957F4F0D
:101350008F4F9F4F9923A9F0F92F96E9BB279395BB
:10136000F695879577956795B795F111F8CFFAF4CB
:10137000BB0F11F460FF1BC06F5F7F4F8F4F9F4FFC
:1013800016C0882311F096E911C0772321F09EE85A
:10139000872F762F05C0662371F096E8862F70E0C0
:1013A00060E02AF09A95660F771F881FDAF7880F9A
:1013B0009695879597F90895990F0008550FAA0BF0
:1013C000E0E8FEEF16161706E807F907C0F0121658
:1013D0001306E407F50798F0621B730B840B950B5B
:1013E00039F40A2661F0232B242B252B21F40895B0
:1013F0000A2609F4A140A6958FEF811D811D08954D
:1014000097F99F6780E870E060E008959FEF80ECB7
:10141000089500240A94161617061806090608955A
:1014200000240A9412161306140605060895092EC0
:101430000394000C11F4882352F0BB0F40F4BF2B2F
:1014400011F460FF04C06F5F7F4F8F4F9F4F08956F
:1014500057FD9058440F551F59F05F3F71F0479565
:10146000880F97FB991F61F09F3F79F0879508954A
:10147000121613061406551FF2CF4695F1DF08C069
:10148000161617061806991FF1CF86957105610586
:1014900008940895E894BB2766277727CB0197F92E
:1014A00008958ADF08F48FEF08950EF0AAC0AECF3A
:1014B0006894A6CFD5DFC8F39923D1F3C6F3DF93A1
:1014C000CF931F930F93FF92C92FDD2788232AF014
:1014D0002197660F771F881FDAF720E030E040E899
:1014E0005FEB9FE3883920F0803E30F021968F77C4
:1014F00025DEE6E2F0E003C021DEE3E5F0E08FD098
:101500008B01BE01EC01FB2E6F5771097595771F9A
:10151000880B990B16DF28E132E741E35FE316D031
:10152000AF2D9801AE01FF900F911F91CF91DF91E8
:1015300016DE7DCF0BD07BCF6CDF28F071DF18F08B
:10154000952309F05DCF62CF1124A5CF81DFA0F3F1
:10155000959FD1F3950F50E0551F629FF001729F48
:10156000BB27F00DB11D639FAA27F00DB11DAA1F67
:10157000649F6627B00DA11D661F829F2227B00DB4
:10158000A11D621F739FB00DA11D621F839FA00D3F
:10159000611D221F749F3327A00D611D231F849F8F
:1015A000600D211D822F762F6A2F11249F575040E6
:1015B0008AF0E1F088234AF0EE0FFF1FBB1F661F81
:1015C000771F881F91505040A9F79E3F510570F03A
:1015D00017CF61CF5F3FECF3983EDCF386957795AC
:1015E0006795B795F795E7959F5FC1F7FE2B880F35
:1015F000911D9695879597F90895DEDE880B990BD6
:1016000008959F3F31F0915020F487957795679525
:10161000B795880F911D9695879597F90895DF9353
:10162000CF931F930F93FF92EF92DF927B018C0178
:10163000689405C0DA2EEF0189DFFE01E894A591D8
:101640002591359145915591AEF3EF0188DDFE016D
:101650009701A801DA9479F7DF90EF90FF900F914E
:101660001F91CF91DF910895991B79E004C0991FD4
:10167000961708F0961B881F7A95C9F780950895EC
:1016800050DD332312F48A1B9B0B01C04ADDB7FFE8
:101690000895821B930B0895EE0FFF1F0590F491A0
:1016A000E02D0994FB01DC018D910190801901105E
:0A16B000D9F3990B0895F894FFCFC9
:1016BA00000000007402D8010502BF0236021402BB
:1016CA0028020D0A004D6F74696F6E206465746597
:1016DA00637465643A20536F6D656F6E6520697334
:1016EA0020696E736964652E000A456E74657220FE
:1016FA0050617373776F72643A0031323334000A7F
:10170A00436F72726563742050617373776F72648A
:10171A00004C69676874206C6576656C3A200054E1
:10172A00656D70657261747572653A20006E616EDE
:10173A0000696E66006F7666000A496E636F7272A0
:0E174A006563742050617373776F72640000E2
:00000001FF
