:1000000072C096C095C094C093C092C009C490C0FD
:100010008FC065C38DC0D2C3ACC38AC089C088C03D
:1000200087C086C085C008000000BE922449123EE9
:10003000ABAAAA2ABECDCCCC4C3E00000080BEAB01
:10004000AAAAAA3E00000000BF000000803F0000F6
:10005000000000084178D3BB4387D1133D190E3C03
:10006000C3BD4282AD2B3E68EC8276BED98FE1A93A
:100070003E4C80EFFFBE01C4FF7F3F000000000048
:1000800000000000360033003000000000003700A0
:100090003400310000000000380035003200040454
:1000A0000404040404040202020202020303030320
:1000B000030302020301020408102040800102042D
:1000C00008102001020408102040804000000000B9
:1000D0000000000000040507000000000000000010
:1000E00000000000BE0411241FBECFE5D4E0DEBF37
:1000F000CDBF11E0A0E6B0E0E4E5F6E102C0059076
:100100000D92A636B107D9F722E0A6E6B1E001C00C
:100110001D92A533B207E1F710E0C3E7D0E003C0BA
:100120002197FE0186DAC237D107D1F782D490CA6F
:1001300067CFE0913202EC3078F54091330228E845
:1001400030E0241B310947FD3395220F331F220F66
:10015000331F8217930784F04091340228E532E080
:10016000241B310947FD3395220F331F220F331F04
:10017000821793070CF49C014FB7F8948E2F90E0F0
:1001800022503109FC01EE0FFF1FE80FF91FE35F5A
:10019000FD4F328321834FBF0895853041F0873072
:1001A00049F0843051F48FB58F778FBD08958FB5A6
:1001B0008F7DFBCF85B58F7D85BD08951F93CF9330
:1001C000DF93282F30E0F901E453FF4F8491F901C8
:1001D000EB54FF4FD491F901E256FF4FC491CC2369
:1001E000A1F0162F8111D9DFEC2FF0E0EE0FFF1FE9
:1001F000EC56FF4FA591B4918FB7F894EC91111183
:1002000008C0D095DE23DC938FBFDF91CF911F9183
:100210000895DE2BF8CFCF93DF9390E0FC01EB54F1
:10022000FF4F249182569F4FFC0184918823D1F087
:1002300090E0880F991FFC01E657FF4FA591B491FC
:10024000FC01EC56FF4FC591D49161110EC09FB7D0
:10025000F8948C91E22FE0958E238C932881E223F1
:10026000E8839FBFDF91CF9108958FB7F894EC9109
:10027000E22BEC938FBFF6CF883020F08D3008F45E
:100280008DE08E508770806487B9369A3699FECF9C
:1002900084B195B108953FB7F89480916C01909125
:1002A0006D01A0916E01B0916F0122B708B600FEFA
:1002B00005C02F3F19F00196A11DB11D3FBFBA2FF8
:1002C000A92F982F8827BC01CD01620F711D811DB8
:1002D000911D43E0660F771F881F991F4A95D1F73C
:1002E00008958F929F92AF92BF92CF92DF92EF923A
:1002F000FF924B015C01CFDF6B017C01CCDF6C19FD
:100300007D098E099F09683E734081059105B0F310
:1003100021E0821A9108A108B10888EEC80E83E096
:10032000D81EE11CF11C81149104A104B10431F721
:10033000FF90EF90DF90CF90BF90AF909F908F9005
:100340000895AF92BF92CF92DF92EF92FF920F93F8
:100350001F93CF93DF936C017B018B01040F151F5B
:10036000EB015E01AE18BF08C017D10759F06991C3
:10037000D601ED91FC910190F081E02DC601099527
:10038000892B79F7C501DF91CF911F910F91FF90D4
:10039000EF90DF90CF90BF90AF900895FC01538D08
:1003A000448D252F30E0842F90E0821B930B54174F
:1003B00010F0CF96089501970895FC01918D828DDC
:1003C000981761F0A28DAE0FBF2FB11D5D968C9175
:1003D000928D9F5F9F73928F90E008958FEF9FEFB4
:1003E0000895FC01918D828D981731F0828DE80F70
:1003F000F11D858D90E008958FEF9FEF0895FC012A
:10040000918D228D892F90E0805C9F4F821B9109F6
:100410008F739927089580E791E0F1DF21E0892B20
:1004200009F420E0822F089580E090E0892B19F0F4
:10043000F2DF8111E5CD0895FC01A48DA80FB92F3D
:10044000B11DA35ABF4F2C91848D90E001968F73FC
:100450009927848FA689B7892C93A089B1898C911B
:1004600082748C93938D848D981306C00288F389CF
:10047000E02D80818F7D80830895EF92FF920F930E
:100480001F93CF93DF93EC0181E0888F9B8D8C8D40
:10049000981319C0E889F989808185FF14C09FB736
:1004A000F894EE89FF896083E889F98980818274F4
:1004B00080839FBF81E090E0DF91CF911F910F91EA
:1004C000FF90EF900895F62E0B8D10E00F5F1F4FF9
:1004D0000F731127E02E8C8D8E110BC00FB607FC09
:1004E000FACFE889F989808185FFF5CFCE01A4DFB5
:1004F000F2CFEB8DEC0FFD2FF11DE35AFF4FF08291
:100500009FB7F8940B8FEA89FB8980818062D0CFF6
:10051000CF93DF93EC01888D8823B1F0AA89BB8942
:10052000E889F9898C9185FD03C0808186FD0CC026
:100530000FB607FCF7CF8C9185FFF2CF808185FF46
:10054000EDCFCE0179DFEACFDF91CF9108958EE034
:1005500093DE8D3721E0920764F58F3521E0920715
:100560000CF057C08D3D9105B4F4843B91050CF01F
:100570004AC08B3591054CF4823391050CF041C093
:100580004F9708F450C080E008958E569109C397A4
:10059000D0F783E30895813421E09207C4F58E30CB
:1005A00021E0920794F5865E91094F9760F784E306
:1005B00008958B3E21E0920794F4863D21E0920756
:1005C00064F5893B21E092072CF48B3991401CF1B2
:1005D00088E30895823D9140B4F689E3089583311C
:1005E00022E092072CF48F3F9140CCF080E30895F5
:1005F000873222E09207ACF08D33924024F684E4F7
:10060000089582E3089581E4089585E3089586E3DB
:10061000089582E4089587E3089583E408958AE2C3
:10062000089583E2089581E30895FC01019000207C
:10063000E9F73197AF01481B590BBC0180E791E006
:1006400080CE8F929F92AF92BF920F931F93CF93C2
:10065000DF93CDB7DEB7A1970FB6F894DEBF0FBE1C
:10066000CDBF19A2423008F44AE08E010F5D1F4F42
:10067000842E912CB12CA12CA501940109D5E62F33
:10068000B901CA01EA30ECF4E05DD801EE938D01C6
:10069000232B242B252B81F790E080E0109711F07D
:1006A000CD01C3DFA1960FB6F894DEBF0FBECDBF5C
:1006B000DF91CF911F910F91BF90AF909F908F903E
:1006C0000895E95CE2CFCF93DF93AFDFEC0182E7DF
:1006D00090E0ABDF8C0F9D1FDF91CF9108951F92AB
:1006E0000F920FB60F9211242F933F938F939F93E6
:1006F000AF93BF938091680190916901A0916A01C5
:10070000B0916B013091670126E0230F2D3768F11E
:1007100029E8230F0396A11DB11D20936701809343
:10072000680190936901A0936A01B0936B01809175
:100730006C0190916D01A0916E01B0916F010196D5
:10074000A11DB11D80936C0190936D01A0936E016A
:10075000B0936F01BF91AF919F918F913F912F9176
:100760000F900FBE0F901F9018950296A11DB11DFE
:10077000D4CF1F920F920FB60F9211242F933F9355
:100780004F935F936F937F938F939F93AF93BF9399
:10079000EF93FF9380E791E04FDEFF91EF91BF91E0
:1007A000AF919F918F917F916F915F914F913F9109
:1007B0002F910F900FBE0F901F9018951F920F92C0
:1007C0000FB60F9211242F938F939F93EF93FF9364
:1007D000E0918001F09181018081E0918601F091AA
:1007E000870182FD1BC09081809189018F5F8F738B
:1007F00020918A01821741F0E0918901F0E0E059EF
:10080000FE4F958F80938901FF91EF919F918F917A
:100810002F910F900FBE0F901F9018958081F4CFED
:100820001F920F920FB60F9211242F933F934F9365
:100830005F936F937F938F939F93AF93BF93CF9368
:10084000DF93EF93FF9380916601C0913102D0E076
:1008500087FF1EC01DBC1CBC809166018F5F80930A
:10086000660180916601082E000C990B8C179D077C
:1008700024F4809166018C309CF18CB59DB5049672
:1008800080329E4408F472C08CB59DB5049670C049
:1008900080916601082E000C990B8C179D07E4F6D9
:1008A000E09166018E2FEE0F990BFC01EE0FFF1FFA
:1008B000E80FF91FE35FFD4F808186FFCDCFE09108
:1008C00066018E2FEE0F990BFC01EE0FFF1FE80F54
:1008D000F91FE35FFD4F808160E08F736FDCBCCF59
:1008E0002CB53DB5E09166018E2FEE0F990BFC0102
:1008F000EE0FFF1FE80FF91FE35FFD4F818192812B
:10090000820F931F9BBD8ABDE09166018E2FEE0F73
:10091000990BFC01EE0FFF1FE80FF91FE35FFD4F7E
:10092000808186FF10C0E09166018E2FEE0F990B3B
:10093000FC01EE0FFF1FE80FF91FE35FFD4F808101
:1009400061E08F733BDCFF91EF91DF91CF91BF911D
:10095000AF919F918F917F916F915F914F913F9157
:100960002F910F900FBE0F901F90189580E29EE47C
:100970009BBD8ABD8FEF80936601E5CF1092730116
:100980001092720188EE93E0A0E0B0E080937401D1
:1009900090937501A0937601B093770184E690E07F
:1009A000909371018093700180E490E090937D01B9
:1009B00080937C0129E230E030937F0120937E0117
:1009C0002BE230E030938101209380012AE230E075
:1009D0003093830120938201909385018093840159
:1009E0008CE290E0909387018093860110928901B8
:1009F00010928A0110928B0110928C018091310229
:100A00008C3098F491E0980F9093310280933202E9
:100A100090E0FC01EE0FFF1FE80FF91FE35FFD4FB1
:100A20008CED95E09283818308958FEF809332025D
:100A30000895CF93DF93CDB7DEB729970FB6F8941B
:100A4000DEBF0FBECDBF789483B7836083BF89B705
:100A5000816089BF92E09EBD8EB581608EBD8FB5ED
:100A600081608FBD85B5846085BD85B5806485BD99
:100A700086E886B91AB8E0918001F09181019083EF
:100A8000E0917C01F0917D011082E0917E01F09176
:100A90007F0197E6908310928801E0918401F091A4
:100AA00085018083E0918201F091830180818869D2
:100AB0008083E0918201F091830180818F7D80832A
:100AC00061E088E0A8DB61E089E0A5DB61E08BE024
:100AD000A2DB61E08CE09FDB60E080E19CDB809149
:100AE00032028C3008F04BC061E08AE094DB8091E8
:100AF0003202282F30E0F901EE0FFF1FE20FF31F43
:100B0000E35FFD4F9081907C9A6090831092330256
:100B1000109234022CE0622F80D5829FB001112404
:100B200030E020E0AB01420F531FFA01EE0FFF1F30
:100B3000E40FF51FE35FFD4F908196FD12C02F5F1C
:100B40003F4F2C30310571F781110BC01FBC82E083
:100B50008EBD1DBC1CBC88B7806188BF89B7806111
:100B600089BFE09132028E2F90E0FC01EE0FFF1F53
:100B7000E80FF91FE35FFD4F80818064808360E0B0
:100B80008CE01CDB61E08DE046DB61E085E143DB6E
:100B900061E084E140DB60E082E13DDB61E083E035
:100BA0003ADB08E810E01E0125E0220E311C85E743
:100BB00090E089DDAE014F5F5F4F7A016A01C7DCCB
:100BC000F701808360816623D1F380E791E055DCF3
:100BD0006CE271E080E090E084DBFFEFEF1AFF0A47
:100BE000E214F30461F71D8266E870E0C60127D5C0
:100BF0006C01892B09F017C2809133024801881AD1
:100C0000910887FD9394880C991C880C991C092CD9
:100C1000000CAA08BB088091340228E532E0281BAA
:100C2000310987FD3395220F331F220F331F032E07
:100C3000000C440B550B281939094A095B09AAE530
:100C4000B0E01CD224EB30E040E050E0FBD1DA0110
:100C5000C901880D991DAA1DBB1D6BDA6CED75E0ED
:100C600080E090E03EDB809133029801281B31093F
:100C700087FD3395C901880F991F880F991F59DA8D
:100C80008BE890E020DD80E1F7DA7C018DE990E0EF
:100C9000CCDC47010F2C000CAA08BB084AE0C501B8
:100CA000B401B7FE0CC06DE280E791E0E6DB662799
:100CB0007727CB01681979098A099B094AE0C1DCC9
:100CC00082E790E0B2DC8BEA90E03CE2E31631E0B0
:100CD000F30614F08CEC90E0F6DC35E0E32EF12C1A
:100CE00081E1CADAC80ED91E6AE070E080E090E0C7
:100CF000F8DA41E0E41AF10899F7B601DD0C880B47
:100D0000990BF8D220E030E040EA50E458D29B0141
:100D1000AC0160E070EC8FE794E451D220E030E069
:100D200040E85FE3E3D19B01AC0160E070E48CE15B
:100D300096E445D220E030E44CE156E440D293D32F
:100D400020E030E443E555E43AD22FE03FEC4BE5B8
:100D50005BE3CDD19B01AC0160E070E080E89FE3F4
:100D60002ED223E333E948E853E4C0D190D29B016B
:100D7000770F440B550B2E833F8348875987CA0151
:100D8000B901B8D26B017C0180EF90E04EDCA70185
:100D90009601C701B6010AD4882309F459C08EEF21
:100DA00090E043DC82E790E040DC20E030E040EF80
:100DB00051E4C701B6014ED318160CF0C7C060E06D
:100DC00084E1FCD961E08DE0F9D960E085E1F6D9F4
:100DD000EE24EA94F12C61E088E0F0D960E089E04B
:100DE000EDD961E08BE017DAE114F10409F0F6C007
:100DF00060E08BE0E3D9EEEDF0E08491E7ECF0E029
:100E0000E490E0EBF0E0F490FF2079F08111C5D997
:100E1000EF2DF0E0EE0FFF1FE058FF4FA591B491CA
:100E20008C91E8228AE091E011F48EE291E04BDCB3
:100E300068E873E180E090E054DA20E030E0232BB2
:100E400009F4B5CEE8DA882309F4ADCED9D8ABCE13
:100E500046015701E894B7F82FEF3FEF4FE75FE700
:100E6000C501B401A3D381110CC02FEF3FEF4FE7B1
:100E70005FE7C501B4019FD118161CF482E091E030
:100E800090CF2FEF3FEF4FE75FE4C701B601E2D20B
:100E900018161CF486E091E084CF2FEF3FEF4FE768
:100EA0005FECC701B60187D187FDF4CF20E030E0C9
:100EB000A901C701B6017FD187FF45C06DE280E778
:100EC00091E0DBDAC701B60190582AE037ED43EA3A
:100ED0005BE30DD12B013C01DFD14B015C0108D25A
:100EE0009B01AC01C301B20101D12B013C014AE0DD
:100EF000C501B401A6DB6EE280E791E0BEDA20E036
:100F000030E040E251E4C301B201EDD22B013C01DB
:100F1000C3D14B01B12CA12C4AE0C501B40191DB36
:100F2000C501B401E5D19B01AC01C301B201DED022
:100F300020E030E040E251E4D6D2AED190E080E053
:100F40004AE07FDB2FCFC701B601BFCF20E030E002
:100F500040EA51E4C701B6017DD2181644F520E0FD
:100F600030E040EF51E4C701B60125D11816FCF07E
:100F700061E084E123D960E08DE020D960E085E183
:100F80001DD92E813F814885598524513109410958
:100F90005109AFE7B0E072D02AE030E040E050E025
:100FA00051D020583F4F4F4F5F4F790114CF60E031
:100FB00084E104D960E08DE001D961E085E1FED8EB
:100FC00020E030E040EA51E4C701B60143D290E8A6
:100FD000E92EF12C18160CF0FECED3CF3FEFE3161E
:100FE000F10411F461E005CFE7EDF0E08491853084
:100FF00051F0873071F0843089F48FB580688FBDEF
:10100000FBBCEABCF8CE8FB580628FBDF9BCE8BCF2
:10101000F2CE85B5806285BDE3BCEDCEF0E8EF167B
:10102000F10404F7E5CE82E591E04DDB61E083E079
:10103000C5D864EF71E080E090E053D960E083E0D0
:10104000BDD8FBCE052E97FB16F400940FD057FDAC
:1010500005D01ED007FC02D046F408C0509540953C
:10106000309521953F4F4F4F5F4F08959095809554
:10107000709561957F4F8F4F9F4F08952BD0A59FFF
:10108000900DB49F900DA49F800D911D1124089583
:10109000A1E21A2EAA1BBB1BFD010DC0AA1FBB1F7C
:1010A000EE1FFF1FA217B307E407F50720F0A21BEE
:1010B000B30BE40BF50B661F771F881F991F1A945B
:1010C00069F760957095809590959B01AC01BD0185
:1010D000CF010895A29FB001B39FC001A39F01D08B
:1010E000B29F700D811D1124911D08955058BB278A
:1010F000AA270ED075C166D130F06BD120F031F443
:101100009F3F11F41EF45BC10EF4E095E7FB51C163
:10111000E92F77D180F3BA17620773078407950721
:1011200018F071F49EF58FC10EF4E0950B2EBA2FD6
:10113000A02D0B01B90190010C01CA01A0011124DD
:10114000FF27591B99F0593F50F4503E68F11A1689
:10115000F040A22F232F342F4427585FF3CF46951A
:1011600037952795A795F0405395C9F77EF41F163C
:10117000BA0B620B730B840BBAF09150A1F0FF0F06
:10118000BB1F661F771F881FC2F70EC0BA0F621FF2
:10119000731F841F48F4879577956795B795F795E2
:1011A0009E3F08F0B3CF9395880F08F09927EE0F74
:1011B000979587950895D9D008F481E008950CD0CB
:1011C0000FC107D140F0FED030F021F45F3F19F09D
:1011D000F0C0511139C1F3C014D198F39923C9F368
:1011E0005523B1F3951B550BBB27AA27621773072D
:1011F000840738F09F5F5F4F220F331F441FAA1FE1
:10120000A9F333D00E2E3AF0E0E830D091505040A0
:10121000E695001CCAF729D0FE2F27D0660F771F4E
:10122000881FBB1F261737074807AB07B0E809F030
:10123000BB0B802DBF01FF2793585F4F2AF09E3FC5
:10124000510568F0B6C000C15F3FECF3983EDCF397
:10125000869577956795B795F7959F5FC9F7880F3E
:10126000911D9695879597F90895E1E0660F771F90
:10127000881FBB1F621773078407BA0720F0621B21
:10128000730B840BBA0BEE1F88F7E095089504D01A
:101290006894B111D9C00895BCD088F09F5790F0E0
:1012A000B92F9927B751A0F0D1F0660F771F881F8B
:1012B000991F1AF0BA95C9F712C0B13081F0C3D0A6
:1012C000B1E00895C0C0672F782F8827B85F39F044
:1012D000B93FCCF3869577956795B395D9F73EF4EA
:1012E00090958095709561957F4F8F4F9F4F089592
:1012F000E89409C097FB3EF49095809570956195B0
:101300007F4F8F4F9F4F9923A9F0F92F96E9BB2765
:101310009395F695879577956795B795F111F8CFE1
:10132000FAF4BB0F11F460FF1BC06F5F7F4F8F4F4C
:101330009F4F16C0882311F096E911C0772321F042
:101340009EE8872F762F05C0662371F096E8862FDA
:1013500070E060E02AF09A95660F771F881FDAF731
:10136000880F9695879597F90895990F0008550F5E
:10137000AA0BE0E8FEEF16161706E807F907C0F01B
:1013800012161306E407F50798F0621B730B840B23
:10139000950B39F40A2661F0232B242B252B21F4FD
:1013A00008950A2609F4A140A6958FEF811D811D9D
:1013B000089597F99F6780E870E060E008959FEFD7
:1013C00080EC089500240A941616170618060906DC
:1013D000089500240A9412161306140605060895AB
:1013E000092E0394000C11F4882352F0BB0F40F433
:1013F000BF2B11F460FF04C06F5F7F4F8F4F9F4F73
:10140000089557FD9058440F551F59F05F3F71F0F4
:101410004795880F97FB991F61F09F3F79F087955B
:101420000895121613061406551FF2CF4695F1DFE4
:1014300008C0161617061806991FF1CF8695710574
:10144000610508940895E894BB2766277727CB01A8
:1014500097F908958ADF08F48FEF08950EF0AAC077
:10146000AECF6894A6CFD5DFC8F39923D1F3C6F3E6
:10147000DF93CF931F930F93FF92C92FDD2788230C
:101480002AF02197660F771F881FDAF720E030E0F7
:1014900040E85FEB9FE3883920F0803E30F02196F2
:1014A0008F7725DEE6E2F0E003C021DEE3E5F0E041
:1014B0008FD08B01BE01EC01FB2E6F577109759522
:1014C000771F880B990B16DF28E132E741E35FE3D2
:1014D00016D0AF2D9801AE01FF900F911F91CF91C3
:1014E000DF9116DE7DCF0BD07BCF6CDF28F071DF74
:1014F00018F0952309F05DCF62CF1124A5CF81DFCD
:10150000A0F3959FD1F3950F50E0551F629FF00116
:10151000729FBB27F00DB11D639FAA27F00DB11D6F
:10152000AA1F649F6627B00DA11D661F829F2227F8
:10153000B00DA11D621F739FB00DA11D621F839F7F
:10154000A00D611D221F749F3327A00D611D231F55
:10155000849F600D211D822F762F6A2F11249F57A3
:1015600050408AF0E1F088234AF0EE0FFF1FBB1FC6
:10157000661F771F881F91505040A9F79E3F510565
:1015800070F017CF61CF5F3FECF3983EDCF38695A8
:1015900077956795B795F795E7959F5FC1F7FE2B10
:1015A000880F911D9695879597F90895DEDE880B33
:1015B000990B08959F3F31F0915020F487957795CE
:1015C0006795B795880F911D9695879597F908951A
:1015D000DF93CF931F930F93FF92EF92DF927B01E4
:1015E0008C01689405C0DA2EEF0189DFFE01E894D2
:1015F000A5912591359145915591AEF3EF0188DD87
:10160000FE019701A801DA9479F7DF90EF90FF903F
:101610000F911F91CF91DF910895991B79E004C03C
:10162000991F961708F0961B881F7A95C9F7809521
:101630000895EE0FFF1F0590F491E02D0994FB0132
:10164000DC018D91019080190110D9F3990B089557
:04165000F894FFCF3C
:10165400000000003D02A101CE018802FF01DD016E
:10166400F1010D0A000A456E7465722050617373AE
:10167400776F72643A0031323334000A436F727206
:101684006563742050617373776F7264004C69678B
:101694006874206C6576656C3A2000526F6F6D201B
:1016A4006973206461726B3A205475726E696E6757
:1016B400206C6967687473204F4E2E00526F6F6DF3
:1016C400206973206272696768743A205475726E77
:1016D400696E67206C6967687473204F46462E00F4
:1016E40054656D70657261747572653A20006E613F
:1016F4006E00696E66006F7666004D6F74696F6E7A
:101704002064657465637465643A20536F6D656F16
:101714006E6520697320696E736964652E004E6F6F
:10172400206D6F74696F6E2064657465637465649D
:101734003A20486F75736520697320656D707479FC
:101744002E000A496E636F72726563742050617370
:0617540073776F72640060
:00000001FF
