:1000000045C069C068C067C066C065C01EC163C026
:1000100062C0D1C060C05FC05EC05DC05CC05BC07C
:100020005AC059C058C000000000360033003000EC
:1000300000000000370034003100000000003800EC
:100040003500320004040404040404040202020221
:100050000202030303030303020203010204081064
:1000600020408001020408102001020408102040F2
:1000700080400000000000000000000405070000B0
:1000800000000000000000000000830211241FBED9
:10009000CFE5D4E0DEBFCDBF10E0A0E6B0E0E4E6FF
:1000A000F5E002C005900D92A036B107D9F720E027
:1000B000A0E6B0E001C01D92A239B207E1F710E05E
:1000C000C6E4D0E003C02197FE0144D2C534D10775
:1000D000D1F769D145C294CF853041F0873049F0DE
:1000E000843051F48FB58F778FBD08958FB58F7D94
:1000F000FBCF85B58F7D85BD08951F93CF93DF938B
:10010000282F30E0F901EE58FF4F8491F901E55AAC
:10011000FF4FD491F901EC5BFF4FC491CC23A1F0C8
:10012000162F8111D9DFEC2FF0E0EE0FFF1FE65CF8
:10013000FF4FA591B4918FB7F894EC91111108C0BD
:10014000D095DE23DC938FBFDF91CF911F9108956F
:10015000DE2BF8CFCF93DF9390E0FC01E55AFF4F01
:1001600024918C5B9F4FFC0184918823D1F090E017
:10017000880F991FFC01E05DFF4FA591B491FC0130
:10018000E65CFF4FC591D49161110EC09FB7F89402
:100190008C91E22FE0958E238C932881E223E883D3
:1001A0009FBFDF91CF9108958FB7F894EC91E22B28
:1001B000EC938FBFF6CF1F920F920FB60F921124C0
:1001C0002F933F938F939F93AF93BF9380918E0014
:1001D00090918F00A0919000B091910030918D008E
:1001E00023E0230F2D3768F126E8230F0296A11D87
:1001F000B11D20938D0080938E0090938F00A0936B
:100200009000B09391008091890090918A00A09114
:100210008B00B0918C000196A11DB11D80938900C7
:1002200090938A00A0938B00B0938C00BF91AF9104
:100230009F918F913F912F910F900FBE0F901F9024
:1002400018950196A11DB11DD4CF1F920F920FB624
:100250000F9211242F933F934F935F936F937F934C
:100260008F939F93AF93BF93CF93DF93EF93FF93BE
:1002700080916100C0916000D0E087FF1EC01DBC6E
:100280001CBC809161008F5F809361008091610050
:10029000082E000C990B8C179D0724F480916100A7
:1002A0008C309CF18CB59DB5049680349C4908F443
:1002B00072C08CB59DB5049670C080916100082E07
:1002C000000C990B8C179D07E4F6E09161008E2FCE
:1002D000EE0F990BFC01EE0FFF1FE80FF91FEE590F
:1002E000FF4F808186FFCDCFE09161008E2FEE0F12
:1002F000990BFC01EE0FFF1FE80FF91FEE59FF4F9E
:10030000808160E08F73F9DEBCCF2CB53DB5E09104
:1003100061008E2FEE0F990BFC01EE0FFF1FE80F0F
:10032000F91FEE59FF4F81819281820F931F9BBD70
:100330008ABDE09161008E2FEE0F990BFC01EE0F4C
:10034000FF1FE80FF91FEE59FF4F808186FF10C095
:10035000E09161008E2FEE0F990BFC01EE0FFF1F55
:10036000E80FF91FEE59FF4F808161E08F73C5DE02
:10037000FF91EF91DF91CF91BF91AF919F918F91BD
:100380007F916F915F914F913F912F910F900FBE91
:100390000F901F90189580E49CE99BBD8ABD8FEF5C
:1003A00080936100E5CF789483B7836083BF89B77A
:1003B000816089BF82E08EBD8EB581608EBD8FB5B4
:1003C00081608FBD85B5846085BD85B5806485BD40
:1003D00087E886B91AB861E08EE0BCDE61E08FE0A4
:1003E000B9DE61E08BE0B6DE61E08CE0B3DE60E0B8
:1003F00080E1B0DE809186008C3008F04BC061E077
:100400008AE0A8DE80918600282F30E0F901EE0F07
:10041000FF1FE20FF31FEE59FF4F9081907C9A600F
:10042000908310928700109288002CE0622F86D073
:10043000829FB001112430E020E0AB01420F531F36
:10044000FA01EE0FFF1FE40FF51FEE59FF4F9081E9
:1004500096FD12C02F5F3F4F2C30310571F781118F
:100460000BC01FBC82E08EBD1DBC1CBC88B7806168
:1004700088BF89B7806189BFE09186008E2F90E0A8
:10048000FC01EE0FFF1FE80FF91FEE59FF4F8081AF
:100490008064808361E08EE030DE60E08FE02DDEFE
:1004A00061E08CE02ADE61E08DE054DE60E084E112
:1004B00051DEC6E8D0E00FE610E098E5E92E90E0C6
:1004C000F92E20E0C22E20E0D22EFE018491F80108
:1004D000A490F701B490BB2071F08111FDDDEB2DEC
:1004E000F0E0EE0FFF1FEA5DFF4FA591B4918C91F4
:1004F000A82261E009F460E08CE0FFDDC114D104C2
:1005000021F37EDDE2CF809160008C3098F491E0A1
:10051000980F909360008093860090E0FC01EE0FAE
:10052000FF1FE80FF91FEE59FF4F88EB9BE0928306
:10053000818308958FEF809386000895991B79E059
:1005400004C0991F961708F0961B881F7A95C9F763
:1005500080950895EE0FFF1F0590F491E02D09940A
:04056000F894FFCF3D
:00000001FF
