:1000000040C064C063C062C061C060C06EC25EC0F8
:100010005DC0CAC15BC037C211C258C057C056C00C
:1000200055C054C053C000000000370034003100F8
:100030000000000038003500320004040404040409
:100040000404020202020202030303030303020286
:10005000030102040810204080010204081020015E
:100060000204081020408040000000000000000052
:100070000004050700000000000000000000000070
:10008000230311241FBECFE5D4E0DEBFCDBF10E0B7
:10009000A0E6B0E0E6E6F9E002C005900D92A637D2
:1000A000B107D9F721E0A6E7B0E001C01D92A53461
:1000B000B207E1F710E0C1E4D0E003C02197FE01F0
:1000C0004AD4C034D107D1F719D34BC499CF90E0AB
:1000D000FC01E859FF4F3491FC01EF5AFF4F249186
:1000E000FC01E65CFF4FE491EE23E1F0332349F09D
:1000F0003530C9F03730D1F0343019F48FB58F77FF
:100100008FBDF0E0EE0FFF1FE05DFF4FA591B491B2
:100110008FB7F89461110EC09C91E22FE095E9230E
:10012000EC938FBF08958FB58F7DEACF85B58F7D16
:1001300085BDE7CFEC91E22BF3CFCF93DF9390E037
:10014000FC01EF5AFF4F2491865C9F4FFC01849184
:100150008823D1F090E0880F991FFC01EA5DFF4FE2
:10016000A591B491FC01E05DFF4FC591D49161115F
:100170000EC09FB7F8948C91E22FE0958E238C935C
:100180002881E223E8839FBFDF91CF9108958FB745
:10019000F894EC91E22BEC938FBFF6CFAF92BF9225
:1001A000CF92DF92EF92FF920F931F93CF93DF9343
:1001B0006C017B018B01040F151FEB015E01AE1872
:1001C000BF08C017D10759F06991D601ED91FC9194
:1001D0000190F081E02DC6010995892B79F7C501C1
:1001E000DF91CF911F910F91FF90EF90DF90CF9013
:1001F000BF90AF900895FC01538D448D252F30E0C2
:10020000842F90E0821B930B541710F0CF96089523
:1002100001970895FC01918D828D981761F0A28D50
:10022000AE0FBF2FB11D5D968C91928D9F5F9F7316
:10023000928F90E008958FEF9FEF0895FC01918DCC
:10024000828D981731F0828DE80FF11D858D90E039
:1002500008958FEF9FEF0895FC01918D228D892FD6
:1002600090E0805C9F4F821B91098F7399270895BE
:1002700080E890E0F1DF21E0892B09F420E0822F73
:10028000089580E090E0892B19F0F2DF8111B8CE5B
:100290000895FC01A48DA80FB92FB11DA35ABF4F1B
:1002A0002C91848D90E001968F739927848FA68975
:1002B000B7892C93A089B1898C9182748C93938D8A
:1002C000848D981306C00288F389E02D80818F7D8C
:1002D00080830895EF92FF920F931F93CF93DF9344
:1002E000EC0181E0888F9B8D8C8D981319C0E88973
:1002F000F989808185FF14C09FB7F894EE89FF8942
:100300006083E889F9898081827480839FBF81E05E
:1003100090E0DF91CF911F910F91FF90EF900895A2
:10032000F62E0B8D10E00F5F1F4F0F731127E02E7D
:100330008C8D8E110BC00FB607FCFACFE889F989B6
:10034000808185FFF5CFCE01A4DFF2CFEB8DEC0FDE
:10035000FD2FF11DE35AFF4FF0829FB7F8940B8FEA
:10036000EA89FB8980818062D0CFCF93DF93EC0153
:10037000888D8823B1F0AA89BB89E889F9898C9195
:1003800085FD03C0808186FD0CC00FB607FCF7CF4A
:100390008C9185FFF2CF808185FFEDCFCE0179DF93
:1003A000EACFDF91CF9108951F920F920FB60F926F
:1003B00011242F933F938F939F93AF93BF9380917B
:1003C0007C0090917D00A0917E00B0917F003091E3
:1003D0007B0026E0230F2D3768F129E8230F0396D1
:1003E000A11DB11D20937B0080937C0090937D0024
:1003F000A0937E00B0937F00809177009091780069
:10040000A0917900B0917A000196A11DB11D809351
:10041000770090937800A0937900B0937A00BF9111
:10042000AF919F918F913F912F910F900FBE0F90A1
:100430001F9018950296A11DB11DD4CF1F920F9247
:100440000FB60F9211242F933F934F935F936F93A7
:100450007F938F939F93AF93BF93EF93FF9380E826
:1004600090E017DFFF91EF91BF91AF919F918F9136
:100470007F916F915F914F913F912F910F900FBEA0
:100480000F901F9018951F920F920FB60F92112484
:100490002F938F939F93EF93FF93E0919000F091B0
:1004A00091008081E0919600F091970082FD1BC041
:1004B0009081809199008F5F8F7320919A008217AD
:1004C00041F0E0919900F0E0E058FF4F958F809364
:1004D0009900FF91EF919F918F912F910F900FBEF7
:1004E0000F901F9018958081F4CF1F920F920FB636
:1004F0000F9211242F933F934F935F936F937F93AA
:100500008F939F93AF93BF93CF93DF93EF93FF931B
:1005100080917600C0914101D0E087FF1EC01DBCD4
:100520001CBC809176008F5F80937600809176006E
:10053000082E000C990B8C179D0724F480917600EF
:100540008C309CF18CB59DB5049680329E4408F4A5
:1005500072C08CB59DB5049670C080917600082E4F
:10056000000C990B8C179D07E4F6E09176008E2F16
:10057000EE0F990BFC01EE0FFF1FE80FF91FE35E72
:10058000FE4F808186FFCDCFE09176008E2FEE0F5B
:10059000990BFC01EE0FFF1FE80FF91FE35EFE4F02
:1005A000808160E08F7393DDBCCF2CB53DB5E091C9
:1005B00076008E2FEE0F990BFC01EE0FFF1FE80F58
:1005C000F91FE35EFE4F81819281820F931F9BBDD5
:1005D0008ABDE09176008E2FEE0F990BFC01EE0F95
:1005E000FF1FE80FF91FE35EFE4F808186FF10C0FA
:1005F000E09176008E2FEE0F990BFC01EE0FFF1F9E
:10060000E80FF91FE35EFE4F808161E08F735FDDCD
:10061000FF91EF91DF91CF91BF91AF919F918F911A
:100620007F916F915F914F913F912F910F900FBEEE
:100630000F901F90189580E29EE49BBD8ABD8FEFBE
:1006400080937600E5CF109283001092820088EEAE
:1006500093E0A0E0B0E08093840090938500A093A5
:100660008600B093870084E690E0909381008093A9
:10067000800080E490E090938D0080938C0029E2CC
:1006800030E030938F0020938E002BE230E03093E7
:100690009100209390002AE230E030939300209361
:1006A000920090939500809394008CE290E0909358
:1006B0009700809396001092990010929A001092E1
:1006C0009B0010929C00809141018C3098F491E045
:1006D000980F909341018093420190E0FC01EE0F4E
:1006E000FF1FE80FF91FE35EFE4F8CED95E092834C
:1006F000818308958FEF809342010895789483B7A2
:10070000836083BF89B7816089BF92E09EBD8EB54B
:1007100081608EBD8FB581608FBD85B5846085BDDC
:1007200085B5806485BD86E886B91AB8E0919000E9
:10073000F09191009083E0918C00F0918D001082F7
:10074000E0918E00F0918F0097E6908310929800D0
:10075000E0919400F09195008083E0919200F091F7
:100760009300808188698083E0919200F0919300EA
:1007700080818F7D808361E088E0DFDC61E089E05B
:10078000DCDC61E08BE0D9DC61E08CE0D6DC60E0B1
:1007900080E1D3DC809142018C3008F04BC061E0F5
:1007A0008AE0CBDC80914201282F30E0F901EE0F86
:1007B000FF1FE20FF31FE35EFE4F9081907C9A6073
:1007C000908310924301109244012CE0622FB7D025
:1007D000829FB001112430E020E0AB01420F531F93
:1007E000FA01EE0FFF1FE40FF51FE35EFE4F90814D
:1007F00096FD12C02F5F3F4F2C30310571F78111EC
:100800000BC01FBC82E08EBD1DBC1CBC88B78061C4
:1008100088BF89B7806189BFE09142018E2F90E047
:10082000FC01EE0FFF1FE80FF91FE35EFE4F808112
:100830008064808360E08CE04ADCC0E400E010E08B
:10084000C7B9369A3699FECF84B195B18D3721E07C
:100850009207E0F58F3521E0920708F066C08D3DE4
:10086000910530F5843B910508F065C08B35910505
:1008700078F48233910508F060C061E34F9768F027
:1008800001151105E9F2F4DC8823D1F2B9DBD8CFE8
:100890008E56910963E3C39798F780E890E01ADDDC
:1008A00042E050E062E770E080E890E077DCE8CF7B
:1008B000813421E09207D8F58E3021E09207C8F507
:1008C000865E910964E34F9740F3DACF8B3E21E0D7
:1008D000920798F4863D21E0920728F5893B21E0B4
:1008E000920730F467E38B399140B8F268E3D5CFD3
:1008F00069E3823D914088F2C3CF833122E09207C1
:1009000030F46AE28F3F914040F260E3C6CF873215
:1009100022E0920730F064E48D33924008F4BDCFBA
:10092000AFCF63E2BACF63E4B8CF62E4B6CF66E399
:10093000B4CF65E3B2CF61E4B0CF62E3AECF991B31
:1009400079E004C0991F961708F0961B881F7A95C6
:10095000C9F780950895EE0FFF1F0590F491E02DE3
:060960000994F894FFCF9A
:10096600000000006A01CE00FB00B5012C010A015F
:060976001E010D0A000045
:00000001FF
