:1000000040C064C063C062C061C060C0C3C15EC0A4
:100010005DC076C15BC05AC059C058C057C056C0F9
:1000200055C054C053C00000000000000000000490
:1000300005070000000000000000000000000000B4
:100040000038003500320000000000370034003175
:100050000004040404040404040202020202020371
:10006000030303030302020301020408102040807B
:100070000102040810200102040810204080400002
:10008000F80211241FBECFE5D4E0DEBFCDBF10E0E3
:10009000A0E6B0E0E2E0F7E002C005900D92A036E5
:1000A000B107D9F720E0A0E6B0E001C01D92A23967
:1000B000B207E1F710E0C1E4D0E003C02197FE01F0
:1000C00018D3C034D107D1F713D219C399CF8F9267
:1000D0009F92AF92BF92FF920F931F93CF93DF93A4
:1000E000F0908F002BE02F1508F44AC0209191006A
:1000F00008E512E0021B110927FD1395000F111FDF
:10010000000F111F20919000C8E8D0E0C21BD10958
:1001100027FDD395CC0FDD1FCC0FDD1F4E010D2E1B
:10012000000CAA08BB089801012E000C440B550BCB
:10013000281939094A095B09DC019BD224EB30E01C
:1001400040E050E070D2820E931EA41EB51E8C16A5
:100150009D062CF0E801801691060CF4E40122972C
:10016000CC0FDD1F2FB7F8948F2D90E0FC01EE0F20
:10017000FF1FE80FF91FE559FF4FD283C1832FBF3F
:10018000DF91CF911F910F91FF90BF90AF909F9003
:100190008F90089590E0FC01E859FF4F24918F5A09
:1001A0009F4FFC018491882399F090E0880F991F5C
:1001B000FC01E95BFF4FA591B491FC01E35CFF4FAB
:1001C000859194918FB7F894EC91E22BEC938FBFCB
:1001D000089590E0FC01EA5DFF4F3491FC01E8597D
:1001E000FF4F2491FC01EF5AFF4FE491EE23E1F021
:1001F000332349F03530C9F03730D1F0343019F4B9
:100200008FB58F778FBDF0E0EE0FFF1FE35CFF4FE0
:10021000A591B4918FB7F89461110EC09C91E22F13
:10022000E095E923EC938FBF08958FB58F7DEACFDA
:1002300085B58F7D85BDE7CFEC91E22BF3CF3FB73E
:10024000F8948091670090916800A0916900B09146
:100250006A0022B708B600FE05C02F3F19F00196CC
:10026000A11DB11D3FBFBA2FA92F982F8827BC0110
:10027000CD01620F711D811D911D42E0660F771F38
:10028000881F991F4A95D1F708958F929F92AF9238
:10029000BF92CF92DF92EF92FF924B015C01CFDFD2
:1002A0006B017C01CCDF6C197D098E099F09683ECA
:1002B000734081059105B0F321E0821A9108A108ED
:1002C000B10888EEC80E83E0D81EE11CF11C811431
:1002D0009104A104B10431F7FF90EF90DF90CF902B
:1002E000BF90AF909F908F9008958AE590E0EFDEE9
:1002F0006CED75E080E090E0C8DF90E080E0E7CE54
:100300001F920F920FB60F9211242F933F938F934A
:100310009F93AF93BF938091630090916400A091ED
:100320006500B09166003091620023E0230F2D3705
:1003300068F126E8230F0296A11DB11D20936200EB
:100340008093630090936400A0936500B09366006F
:100350008091670090916800A0916900B0916A0057
:100360000196A11DB11D8093670090936800A09332
:100370006900B0936A00BF91AF919F918F913F91B7
:100380002F910F900FBE0F901F9018950196A11DF1
:10039000B11DD4CF1F920F920FB60F9211242F933D
:1003A0003F934F935F936F937F938F939F93AF93FD
:1003B000BF93CF93DF93EF93FF9380916100C09140
:1003C0006000D0E087FF1EC01DBC1CBC8091610096
:1003D0008F5F8093610080916100082E000C990B63
:1003E0008C179D0724F4809161008C309CF18CB5B2
:1003F0009DB5049680349C4908F472C08CB59DB5B7
:10040000049670C080916100082E000C990B8C1727
:100410009D07E4F6E09161008E2FEE0F990BFC0131
:10042000EE0FFF1FE80FF91FE559FF4F808186FF90
:10043000CDCFE09161008E2FEE0F990BFC01EE0FF6
:10044000FF1FE80FF91FE559FF4F808160E08F73B0
:10045000C0DEBCCF2CB53DB5E09161008E2FEE0F14
:10046000990BFC01EE0FFF1FE80FF91FE559FF4F35
:1004700081819281820F931F9BBD8ABDE0916100B3
:100480008E2FEE0F990BFC01EE0FFF1FE80FF91FE7
:10049000E559FF4F808186FF10C0E09161008E2FEB
:1004A000EE0F990BFC01EE0FFF1FE80FF91FE55946
:1004B000FF4F808161E08F738CDEFF91EF91DF91C0
:1004C000CF91BF91AF919F918F917F916F915F91EC
:1004D0004F913F912F910F900FBE0F901F90189545
:1004E00080E49CE99BBD8ABD8FEF80936100E5CFDE
:1004F000789483B7836083BF89B7816089BF82E0C6
:100500008EBD8EB581608EBD8FB581608FBD85B586
:10051000846085BD85B5806485BD87E886B91AB8D5
:100520008EE038DE8FE036DE8BE034DE80918F00A7
:100530008C3008F04AC08AE02DDE80918F00282F91
:1005400030E0F901EE0FFF1FE20FF31FE559FF4FF7
:100550009081907C9A60908310929000109291000C
:100560002CE0622FBAD0829FB001112430E020E04D
:10057000AB01420F531FFA01EE0FFF1FE40FF51FEF
:10058000E559FF4F908196FD12C02F5F3F4F2C30F1
:10059000310571F781110BC01FBC82E08EBD1DBCFF
:1005A0001CBC88B7806188BF89B7806189BFE09132
:1005B0008F008E2F90E0FC01EE0FFF1FE80FF91F58
:1005C000E559FF4F8081806480838FDE64EF71E0A6
:1005D00080E090E05ADE89DE61E08EE0FADD60E0E6
:1005E0008FE0F7DDC0E0D0E02097F1F309DDFCCF2C
:1005F000809160008C3098F491E0980F90936000A7
:1006000080938F0090E0FC01EE0FFF1FE80FF91FB1
:10061000E559FF4F88EB9BE09283818308958FEF2C
:1006200080938F000895052E97FB16F400940FD049
:1006300057FD05D024D007FC02D046F408C05095E1
:100640004095309521953F4F4F4F5F4F08959095BE
:100650008095709561957F4F8F4F9F4F089531D052
:10066000A59F900DB49F900DA49F800D911D112406
:100670000895B7FFF4CFF3DF821B930B0895A1E237
:100680001A2EAA1BBB1BFD010DC0AA1FBB1FEE1F0C
:10069000FF1FA217B307E407F50720F0A21BB30B57
:1006A000E40BF50B661F771F881F991F1A9469F7D3
:1006B00060957095809590959B01AC01BD01CF012F
:1006C0000895A29FB001B39FC001A39F01D0B29F24
:1006D000700D811D1124911D0895991B79E004C0AE
:1006E000991F961708F0961B881F7A95C9F7809571
:1006F0000895EE0FFF1F0590F491E02D0994F894F2
:02070000FFCF29
:00000001FF
