:1000000040C064C063C062C061C060C011C15EC056
:100010005DC0C4C05BC05AC059C058C057C056C0AC
:1000200055C054C053C000000000370034003100F8
:100030000000000038003500320004040404040409
:100040000404020202020202030303030303020286
:10005000030102040810204080010204081020015E
:100060000204081020408040000000000000000052
:100070000004050700000000000000000000000070
:100080005B0211241FBECFE5D4E0DEBFCDBF10E080
:10009000A0E6B0E0E4E1F5E002C005900D92A036E4
:1000A000B107D9F720E0A0E6B0E001C01D92A23967
:1000B000B207E1F710E0C1E4D0E003C02197FE01F0
:1000C00021D2C034D107D1F761D122C299CF90E0BB
:1000D000FC01E859FF4F3491FC01EF5AFF4F249186
:1000E000FC01E65CFF4FE491EE23E1F0332349F09D
:1000F0003530C9F03730D1F0343019F48FB58F77FF
:100100008FBDF0E0EE0FFF1FE05DFF4FA591B491B2
:100110008FB7F89461110EC09C91E22FE095E9230E
:10012000EC938FBF08958FB58F7DEACF85B58F7D16
:1001300085BDE7CFEC91E22BF3CFCF93DF9390E037
:10014000FC01EF5AFF4F2491865C9F4FFC01849184
:100150008823D1F090E0880F991FFC01EA5DFF4FE2
:10016000A591B491FC01E05DFF4FC591D49161115F
:100170000EC09FB7F8948C91E22FE0958E238C935C
:100180002881E223E8839FBFDF91CF9108958FB745
:10019000F894EC91E22BEC938FBFF6CF1F920F9265
:1001A0000FB60F9211242F933F938F939F93AF938A
:1001B000BF9380918E0090918F00A0919000B0919C
:1001C000910030918D0023E0230F2D3768F126E850
:1001D000230F0296A11DB11D20938D0080938E00E8
:1001E00090938F00A0939000B0939100809189002C
:1001F00090918A00A0918B00B0918C000196A11D76
:10020000B11D8093890090938A00A0938B00B093D6
:100210008C00BF91AF919F918F913F912F910F9043
:100220000FBE0F901F9018950196A11DB11DD4CF40
:100230001F920F920FB60F9211242F933F934F935B
:100240005F936F937F938F939F93AF93BF93CF935E
:10025000DF93EF93FF9380916100C0916000D0E045
:1002600087FF1EC01DBC1CBC809161008F5F809306
:10027000610080916100082E000C990B8C179D077E
:1002800024F4809161008C309CF18CB59DB504966E
:1002900080349C4908F472C08CB59DB5049670C03A
:1002A00080916100082E000C990B8C179D07E4F6D5
:1002B000E09161008E2FEE0F990BFC01EE0FFF1FF6
:1002C000E80FF91FEE59FF4F808186FFCDCFE091F7
:1002D00061008E2FEE0F990BFC01EE0FFF1FE80F50
:1002E000F91FEE59FF4F808160E08F73F0DEBCCFC5
:1002F0002CB53DB5E09161008E2FEE0F990BFC01FE
:10030000EE0FFF1FE80FF91FEE59FF4F8181928119
:10031000820F931F9BBD8ABDE09161008E2FEE0F6F
:10032000990BFC01EE0FFF1FE80FF91FEE59FF4F6D
:10033000808186FF10C0E09161008E2FEE0F990B37
:10034000FC01EE0FFF1FE80FF91FEE59FF4F8081F0
:1003500061E08F73BCDEFF91EF91DF91CF91BF9190
:10036000AF919F918F917F916F915F914F913F914D
:100370002F910F900FBE0F901F90189580E49CE96D
:100380009BBD8ABD8FEF80936100E5CF789483B7E2
:10039000836083BF89B7816089BF82E08EBD8EB5DF
:1003A00081608EBD8FB581608FBD85B5846085BD50
:1003B00085B5806485BD87E886B91AB861E08EE0AE
:1003C000BCDE61E08FE0B9DE61E08BE0B6DE61E0CB
:1003D0008CE0B3DE60E080E1B0DE809186008C309E
:1003E00008F04BC061E08AE0A8DE80918600282FEB
:1003F00030E0F901EE0FFF1FE20FF31FEE59FF4F40
:100400009081907C9A60908310928700109288006F
:100410002CE0622F6BD0829FB001112430E020E0ED
:10042000AB01420F531FFA01EE0FFF1FE40FF51F40
:10043000EE59FF4F908196FD12C02F5F3F4F2C3039
:10044000310571F781110BC01FBC82E08EBD1DBC50
:100450001CBC88B7806188BF89B7806189BFE09183
:1004600086008E2F90E0FC01EE0FFF1FE80FF91FB2
:10047000EE59FF4F80818064808361E08EE027DE4B
:1004800060E08FE024DE61E08CE021DEC2E400E089
:1004900010E0C7B9369A3699FECF84B195B160E0C5
:1004A000813293400CF461E08CE011DE01151105FE
:1004B00081F3A6DDEECF809160008C3098F491E05E
:1004C000980F909360008093860090E0FC01EE0FFF
:1004D000FF1FE80FF91FEE59FF4F88EB9BE0928357
:1004E000818308958FEF809386000895991B79E0AA
:1004F00004C0991F961708F0961B881F7A95C9F7B4
:1005000080950895EE0FFF1F0590F491E02D09945A
:04051000F894FFCF8D
:00000001FF
