:100000003FC04EC04DC04CC04BC04AC049C048C0A4
:1000100047C0D2C045C044C043C042C041C040C038
:100020003FC03EC03DC0000000003700340031003A
:100030000000000038003500320004040404040409
:100040000404020202020202030303030303020286
:10005000030102040810204080010204081020015E
:100060000204081020408040000000000000000052
:100070000004050700000000000000000000000070
:1000800011241FBECFE5D4E0DEBFCDBF20E0A0E647
:10009000B0E001C01D92A936B207E1F7D7D015C173
:1000A000AFCFE0E7F0E02491E9E5F0E09491E2E4FD
:1000B000F0E0E491EE23E1F0222349F02530C9F08D
:1000C0002730D1F0243019F42FB52F772FBDF0E071
:1000D000EE0FFF1FE05DFF4FA591B4912FB7F8948D
:1000E00081110EC08C91E92FE095E823EC932FBF8E
:1000F00008952FB52F7DEACF25B52F7D25BDE7CFFC
:10010000EC91E92BF3CF3FB7F89480916500909183
:100110006600A0916700B091680022B708B600FEA3
:1001200005C02F3F19F00196A11DB11D3FBFBA2F89
:10013000A92F982F8827BC01CD01620F711D811D49
:10014000911D42E0660F771F881F991F4A95D1F7CE
:1001500008958F929F92AF92BF92CF92DF92EF92CB
:10016000FF92D1DF4B015C0182E3C82ED12CE12C40
:10017000F12CC9DF681979098A099B09683E734027
:1001800081059105B0F321E0C21AD108E108F10818
:1001900088EE880E83E0981EA11CB11CC114D10406
:1001A000E104F10431F7FF90EF90DF90CF90BF9022
:1001B000AF909F908F9008951F920F920FB60F925D
:1001C00011242F933F938F939F93AF93BF9380916D
:1001D000610090916200A0916300B0916400309141
:1001E000600023E0230F2D3768F126E8230F0296E5
:1001F000A11DB11D20936000809361009093620067
:10020000A0936300B09364008091650090916600B4
:10021000A0916700B09168000196A11DB11D809367
:10022000650090936600A0936700B0936800BF914B
:10023000AF919F918F913F912F910F900FBE0F9093
:100240001F9018950196A11DB11DD4CF789483B746
:10025000836083BF89B7816089BF82E08EBD8EB520
:1002600081608EBD8FB581608FBD85B5846085BD91
:1002700085B5806485BD87E886B91AB8E9E5F0E000
:100280002491E2E4F0E08491882399F090E0880FD3
:10029000991FFC01EA5DFF4FA591B491FC01E05D5F
:1002A000FF4F859194918FB7F894EC91E22BEC93EA
:1002B0008FBFC0E0D0E081E0F4DE4BDF80E0F1DE14
:0E02C00048DF2097C1F39CDEF6CFF894FFCF05
:00000001FF
