:10000000BBC0DFC0DEC0DDC0DCC0DBC0B5C5D9C051
:10001000D8C011C5D6C07EC558C5D3C0D2C0D1C0C6
:10002000D0C0CFC0CEC008000000BE922449123E0E
:10003000ABAAAA2ABECDCCCC4C3E00000080BEAB01
:10004000AAAAAA3E00000000BF000000803F0000F6
:10005000000000084178D3BB4387D1133D190E3C03
:10006000C3BD4282AD2B3E68EC8276BED98FE1A93A
:100070003E4C80EFFFBE01C4FF7F3F000000000048
:100080004C49474854204C4556454C3A2000506155
:100090007373776F7264204368616E676564205381
:1000A00075636365737366756C6C792E00496E6356
:1000B0006F72726563742050617373776F72642E10
:1000C0000050617373776F726420436F727265635F
:1000D000742E204F70656E696E6720446F6F722EAC
:1000E0000050617373776F7264206C656E6774681B
:1000F00020657863656564656421005741524E4907
:100100004E47212057524F4E472050415353574F8F
:10011000524420454E544552454421000000000001
:100120003700340031000000000038003500320094
:10013000040404040404040402020202020203038D
:10014000030303030202030102040810204080019C
:100150000204081020010204081020408040000022
:10016000000000000000000405070000000000007F
:100170000000000000006A0611241FBECFE5D4E095
:10018000DEBFCDBF10E0A0E6B0E0E8ECFAE102C0CF
:1001900005900D92AA3EB107D9F721E0AAEEB0E092
:1001A00001C01D92AB3DB207E1F710E0CCEBD0E00F
:1001B00003C02197FE014ADCCB3BD107D1F7EED536
:1001C00081CC1ECF8F929F92AF92BF92FF920F93DE
:1001D0001F93CF93DF93F090D8012BE02F1508F4F5
:1001E0004AC02091DA0108E512E0021B110927FD3F
:1001F0001395000F111F000F111F2091D901C8E89E
:10020000D0E0C21BD10927FDD395CC0FDD1FCC0F49
:10021000DD1F4E010D2E000CAA08BB089801012E0F
:10022000000C440B550B281939094A095B09DC01FC
:1002300028DA24EB30E040E050E0FDD9820E931E36
:10024000A41EB51E8C169D062CF0E80180169106A2
:100250000CF4E4012297CC0FDD1F2FB7F8948F2DFB
:1002600090E0FC01EE0FFF1FE80FF91FED54FE4F69
:10027000D283C1832FBFDF91CF911F910F91FF9048
:10028000BF90AF909F908F90089590E0FC01E25A4C
:10029000FE4F3491FC01E95BFE4F2491FC01E05DCF
:1002A000FE4FE491EE23E1F0332349F03530C9F0FD
:1002B0003730D1F0343019F48FB58F778FBDF0E03F
:1002C000EE0FFF1FEA5DFE4FA591B4918FB7F89432
:1002D00061110EC09C91E22FE095E923EC938FBF52
:1002E00008958FB58F7DEACF85B58F7D85BDE7CF2A
:1002F000EC91E22BF3CFCF93DF9390E0FC01E95B2D
:10030000FE4F2491805D9E4FFC0184918823D1F0A3
:1003100090E0880F991FFC01E45EFE4FA591B49117
:10032000FC01EA5DFE4FC591D49161110EC09FB7EB
:10033000F8948C91E22FE0958E238C932881E22310
:10034000E8839FBFDF91CF9108958FB7F894EC9128
:10035000E22BEC938FBFF6CF8E50806487B9369A2C
:100360003699FECF84B195B108953FB7F894809146
:100370000E0190910F01A0911001B091110122B7CF
:1003800008B600FE05C02F3F19F00196A11DB11D52
:100390003FBFBA2FA92F982F8827BC01CD01620F2C
:1003A000711D811D911D42E0660F771F881F991FE7
:1003B0004A95D1F708958F929F92AF92BF92CF92B4
:1003C000DF92EF92FF924B015C01CFDF6B017C016A
:1003D000CCDF6C197D098E099F09683E7340810549
:1003E0009105B0F321E0821A9108A108B10888EEC6
:1003F000C80E83E0D81EE11CF11C81149104A104F5
:10040000B10431F7FF90EF90DF90CF90BF90AF90A5
:100410009F908F9008952FB7F89460910A01709182
:100420000B0180910C0190910D012FBF0895AF92A7
:10043000BF92CF92DF92EF92FF920F931F93CF93D1
:10044000DF936C017B018B01040F151FEB015E0133
:10045000AE18BF08C017D10759F06991D601ED91C8
:10046000FC910190F081E02DC6010995892B79F767
:10047000C501DF91CF911F910F91FF90EF90DF9019
:10048000CF90BF90AF900895FC01538D448D252FE0
:1004900030E0842F90E0821B930B541710F0CF961E
:1004A000089501970895FC01918D828D981761F050
:1004B000A28DAE0FBF2FB11D5D968C91928D9F5F67
:1004C0009F73928F90E008958FEF9FEF0895FC0146
:1004D000918D828D981731F0828DE80FF11D858DF9
:1004E00090E008958FEF9FEF0895FC01918D228D8C
:1004F000892F90E0805C9F4F821B91098F73992711
:10050000089582E191E0F1DF21E0892B09F420E0F8
:10051000822F089580E090E0892B19F0F2DF81119D
:100520006FCD0895FC01A48DA80FB92FB11DA35A5A
:10053000BF4F2C91848D90E001968F739927848F03
:10054000A689B7892C93A089B1898C9182748C93E8
:10055000938D848D981306C00288F389E02D8081E5
:100560008F7D80830895EF92FF920F931F93CF9317
:10057000DF93EC0181E0888F9B8D8C8D981319C0DF
:10058000E889F989808185FF14C09FB7F894EE89C6
:10059000FF896083E889F9898081827480839FBFA5
:1005A00081E090E0DF91CF911F910F91FF90EF904C
:1005B0000895F62E0B8D10E00F5F1F4F0F7311275C
:1005C000E02E8C8D8E110BC00FB607FCFACFE88998
:1005D000F989808185FFF5CFCE01A4DFF2CFEB8DC5
:1005E000EC0FFD2FF11DE35AFF4FF0829FB7F894F7
:1005F0000B8FEA89FB8980818062D0CF0F931F9394
:10060000CF93DF938C01D0E0C0E0F801EC0FFD1F29
:100610006491662339F082E191E0A5DF892B11F026
:100620002196F3CFCE01DF91CF911F910F910895C5
:10063000CF93DF93EC01888D8823B1F0AA89BB8921
:10064000E889F9898C9185FD03C0808186FD0CC005
:100650000FB607FCF7CF8C9185FFF2CF808185FF25
:10066000EDCFCE015FDFEACFDF91CF910895CF923A
:10067000DF92EF92FF92CF93DF936B017C0120E03A
:1006800030E040EF51E42FD9CFEFD0E018160CF155
:1006900020E030E040EA51E4C701B60124D9C0E8C7
:1006A000D0E01816B4F4C701B601ECD89B01AC0138
:1006B0002451310941095109AFE7B0E0D8D72AE008
:1006C00030E040E050E0B7D720583F4F4F4F5F4FEA
:1006D000E90161E08BE00FDE209749F460E08BE0F8
:1006E000DF91CF91FF90EF90DF90CF90CECDCF3FB5
:1006F000D10511F461E0F3CFE9E6F1E0E491E530F2
:1007000081F0E730A1F0E430B9F48FB580688FBD97
:10071000DBBDCABDDF91CF91FF90EF90DF90CF900E
:1007200008958FB580628FBDD9BDC8BDF3CF85B5A3
:10073000806285BDC3BDEECFC038D105DCF6CECF1B
:1007400061E083E0A2DD64EF71E080E090E033DE01
:1007500060E083E09ACDFC0101900020E9F7319739
:10076000AF01481B590BBC0182E191E060CECF93F1
:10077000DF9344DFEC0181E890E0EDDF8C0F9D1FFB
:10078000DF91CF9108958F929F92AF92BF920F9376
:100790001F93CF93DF93CDB7DEB7A1970FB6F89431
:1007A000DEBF0FBECDBF19A2423008F44AE08E0171
:1007B0000F5D1F4F842E912CB12CA12CA50194010B
:1007C00066D7E62FB901CA01EA30ECF4E05DD80142
:1007D000EE938D01232B242B252B81F790E080E0D5
:1007E000109711F0CD01B7DFA1960FB6F894DEBFD8
:1007F0000FBECDBFDF91CF911F910F91BF90AF90F2
:100800009F908F900895E95CE2CFCF93DF93A3DFB1
:10081000EC0181E890E09FDF8C0F9D1FDF91CF916D
:1008200008958AE590E0CEDC84E890E0EECFCF92A8
:10083000DF92EF92FF92CF93DF9380E18DDDEC01A9
:1008400080E890E0DBDE6E010D2E000CEE08FF0864
:100850004AE0C701B601F7FE0CC06DE282E191E00B
:1008600082DE66277727CB016C197D098E099F09E7
:100870004AE089DF81E890E06EDF61E0CA3FD105A0
:100880000CF060E088E0DF91CF91FF90EF90DF9077
:10089000CF90FBCC4F925F926F927F928F929F92FC
:1008A000AF92BF92CF92DF92EF92FF926B017C01E9
:1008B00080E990E050DFA7019601C701B6015CD83E
:1008C000882329F187E990E046DF81E890E043DF63
:1008D00020E030E040EF51E4C701B60104D818161B
:1008E0000CF093C060E086E0D0DC61E085E0CDDC18
:1008F00060E087E0FF90EF90DF90CF90BF90AF90E7
:100900009F908F907F906F905F904F90BECC4601EC
:100910005701E894B7F82FEF3FEF4FE75FE7C501C6
:10092000B4012AD881110CC02FEF3FEF4FE75FE7EA
:10093000C501B40167D518161CF48BE990E0C4CF4B
:100940002FEF3FEF4FE75FE4C701B601CCD7181692
:100950001CF48FE990E0B8CF2FEF3FEF4FE75FEC4B
:10096000C701B6014FD587FDF4CF20E030E0A901E3
:10097000C701B60147D587FF45C06DE282E191E02E
:10098000F2DDC701B60190582AE037ED43EA5BE398
:10099000ADD62B013C017BD74B015C0137D59B01C8
:1009A000AC01C301B201A1D62B013C014AE0C50153
:1009B000B401E9DE6EE282E191E0D5DD20E030E0D5
:1009C00040E251E4C301B20182D52B013C015FD763
:1009D0004B01B12CA12C4AE0C501B401D4DEC50104
:1009E000B40114D59B01AC01C301B2017ED620E055
:1009F00030E040E251E46BD54AD790E080E04AE035
:100A0000C2DE63CFC701B601BFCF20E030E040EACD
:100A100051E4C701B60167D718162CF461E086E0EF
:100A200034DC60E063CF60E086E02FDC60E085E0EE
:100A30002CDC61E05ECF1F920F920FB60F92112453
:100A40002F933F938F939F93AF93BF9380910A010E
:100A500090910B01A0910C01B0910D013091090111
:100A600023E0230F2D3768F126E8230F0296A11DFE
:100A7000B11D2093090180930A0190930B01A0936B
:100A80000C01B0930D0180910E0190910F01A09186
:100A90001001B09111010196A11DB11D80930E01AD
:100AA00090930F01A0931001B0931101BF91AF91EA
:100AB0009F918F913F912F910F900FBE0F901F909C
:100AC00018950196A11DB11DD4CF1F920F920FB69C
:100AD0000F9211242F933F934F935F936F937F93C4
:100AE0008F939F93AF93BF93EF93FF9382E191E036
:100AF00019DDFF91EF91BF91AF919F918F917F9100
:100B00006F915F914F913F912F910F900FBE0F907A
:100B10001F9018951F920F920FB60F9211242F93CA
:100B20008F939F93EF93FF93E0912201F091230124
:100B30008081E0912801F091290182FD1BC0908104
:100B400080912B018F5F8F7320912C01821741F0D0
:100B5000E0912B01F0E0EE5EFE4F958F80932B012C
:100B6000FF91EF919F918F912F910F900FBE0F905A
:100B70001F9018958081F4CF1F920F920FB60F929D
:100B800011242F933F934F935F936F937F938F9392
:100B90009F93AF93BF93CF93DF93EF93FF93809196
:100BA000EA00C091D701D0E087FF1EC01DBC1CBC6D
:100BB0008091EA008F5F8093EA008091EA00082E1E
:100BC000000C990B8C179D0724F48091EA008C305F
:100BD0009CF18CB59DB5049680349C4908F472C094
:100BE0008CB59DB5049670C08091EA00082E000C6B
:100BF000990B8C179D07E4F6E091EA008E2FEE0F1B
:100C0000990BFC01EE0FFF1FE80FF91FED54FE4F8B
:100C1000808186FFCDCFE091EA008E2FEE0F990BF9
:100C2000FC01EE0FFF1FE80FF91FED54FE4F80810E
:100C300060E08F732ADBBCCF2CB53DB5E091EA00B4
:100C40008E2FEE0F990BFC01EE0FFF1FE80FF91F1F
:100C5000ED54FE4F81819281820F931F9BBD8ABD0F
:100C6000E091EA008E2FEE0F990BFC01EE0FFF1FB3
:100C7000E80FF91FED54FE4F808186FF10C0E09110
:100C8000EA008E2FEE0F990BFC01EE0FFF1FE80F0D
:100C9000F91FED54FE4F808161E08F73F6DAFF910A
:100CA000EF91DF91CF91BF91AF919F918F917F9104
:100CB0006F915F914F913F912F910F900FBE0F90C9
:100CC0001F90189580E49CE99BBD8ABD8FEF8093AF
:100CD000EA00E5CF109215011092140188EE93E01E
:100CE000A0E0B0E08093160190931701A093180143
:100CF000B093190183E790E0909313018093120160
:100D000080E490E090931F0180931E0129E230E07F
:100D100030932101209320012BE230E03093230116
:100D2000209322012AE230E0309325012093240110
:100D300090932701809326018CE290E09093290103
:100D40008093280110922B0110922C0110922D01FA
:100D500010922E0160DB6093AF017093B00180931D
:100D6000B1019093B2018091D7018C3098F491E059
:100D7000980F9093D7018093D80190E0FC01EE0F7B
:100D8000FF1FE80FF91FED54FE4F88EB9BE09283A5
:100D9000818308958FEF8093D8010895CF93DF93D7
:100DA000CDB7DEB765970FB6F894DEBF0FBECDBFE7
:100DB000789483B7836083BF89B7816089BF82E0FD
:100DC0008EBD8EB581608EBD8FB581608FBD85B5BE
:100DD000846085BD85B5806485BD87E886B91AB80D
:100DE00061E082E088DA61E084E085DA61E08BE04E
:100DF00082DA60E08EE07FDA61E088E07CDA61E050
:100E000085E079DA61E087E076DA61E086E073DA3E
:100E100060E080E170DA60E082E16DDA61E083E059
:100E20006ADA60E088E031DA8091D8018C3008F02D
:100E30004BC061E089E05FDA8091D801282F30E073
:100E4000F901EE0FFF1FE20FF31FED54FE4F9081EB
:100E5000907C996090831092D9011092DA012CE075
:100E6000622FC1D5829FB001112430E020E0AB0198
:100E7000420F531FFA01EE0FFF1FE40FF51FED5451
:100E8000FE4F908196FD12C02F5F3F4F2C303105F1
:100E900071F781110BC01FBC82E08EBD1DBC1CBC54
:100EA00088B7806188BF89B7806189BFE091D80128
:100EB0008E2F90E0FC01EE0FFF1FE80FF91FED549D
:100EC000FE4F80818064808360E084E0DED961E051
:100ED00082E0DBD961E08BE00EDA60E08BE0D5D90F
:100EE000E0912201F091230182E08083E0911E01D4
:100EF000F0911F011082E0912001F09121018FEC0F
:100F0000808310922A01E0912601F091270186E862
:100F10008083E0912401F09125018081886980839C
:100F2000E0912401F091250180818F7D808365E02F
:100F3000662E712C70E0872E70E0972E5524539406
:100F4000E3E23E2EF4E44F2E58E3252E64DA60935C
:100F5000AF017093B0018093B1019093B20145E06D
:100F6000E42EF12C10E000E081E1F6D9080F191F02
:100F70006AE070E080E090E01EDA21E0E21AF10819
:100F800099F7C801B3013BD50FEF1FEF611571054C
:100F9000B1F1072E000C880B990B3AD29B01AC01E2
:100FA00060E070EC8FE794E405D420E030E040E8A6
:100FB0005FE39BD39B01AC0160E070E48CE196E4BD
:100FC000F9D320E030E44CE156E4F4D395D420E0AA
:100FD00030E443E555E4EED32FE03FEC4BE55BE333
:100FE00085D39B01AC0160E070E080E89FE3E2D331
:100FF00023E333E948E853E478D344D48B0182E116
:1010000091E073DA892B09F44CC0CE0101965C01A2
:10101000F12CE12C6C01FFD960931A0170931B0134
:1010200080931C0190931D0182E191E03CDA97FFCF
:10103000D9C1F1D920911A0130911B0140911C01B5
:1010400050911D01621B730B840B950B20911601AF
:1010500030911701409118015091190162177307DF
:101060008407950708F3F601EE0DFF1D10824CE092
:1010700050E063EA70E0C60108D5892B09F0D2C0C0
:101080004EE050E0BE01635F7F4F80E690E00BD5FD
:1010900010926E008EE890E06ADB1092EB001092E6
:1010A00003018091AF019091B001A091B101B09185
:1010B000B2014091050150910601609107017091C4
:1010C00008016C017D01C41AD50AE60AF70AB701C6
:1010D000A601473951056105710538F18093050175
:1010E00090930601A0930701B09308018EE034D9D4
:1010F000833721E092070CF0D6C08535E1E09E07EA
:101100000CF02AC1873E91050CF0BAC0843B9105D2
:101110000CF016C1843691050CF0A9C086349105F7
:101120000CF0EFC04F9708F443C18091040188236D
:1011300011F180910301882309F44DC16CD96093AA
:10114000FF0070930001809301019093020150927F
:10115000FE0067DB6CDBB801012E000C880B990BDD
:1011600057D16B017C0196DBC701B60180DA109282
:101170000401109203018091FD00811104C080914F
:10118000FC00882391F04DDB52DBB801012E000CEE
:10119000880B990B3DD16B017C017CDBC701B6014B
:1011A00066DA1092FD001092FC008091FE00882308
:1011B00079F1B801110F880B990B2AD16B017C01D1
:1011C00069DBC701B60153DA32DB25D90091FF0094
:1011D000109100012091010130910201601B710BFF
:1011E000820B930B603177428105910588F090E086
:1011F00080E0E8D78DED90E008DB61E08BE07BD804
:1012000060E08BE042D860E088E03FD81092FE00BA
:101210008114910409F49ACE74D9882309F494CEE8
:10122000EFD692CE60EB70E0C60116D4892B11F494
:10123000F8DA37CF6AEB70E0C6010ED4892B19F4C7
:101240005092FD002ECF68EC70E0C60105D4892BCA
:1012500019F45092FC0025CF63ED70E0C601FCD379
:10126000892B09F01ECF80E690E0CFDA1ACF8E5698
:101270009109CD9708F059CF83E38D8B63E344C088
:101280008D32F1E09F070CF063C08E3021E09207B1
:101290000CF05AC0805F9109459708F046CF84E36F
:1012A0008D8B64E331C0813EE1E09E078CF48D3C80
:1012B000F1E09F070CF05DC0893B21E092070CF044
:1012C00053C08B3991400CF44BC02D8A68E31CC08D
:1012D0008E30F2E09F074CF48F3F91400CF44EC0EB
:1012E00080E3F82EFD8A60E30FC08D31E2E09E07B7
:1012F0000CF449C0813392400CF017CF4D8A64E45E
:1013000003C082E38D8B62E3E090FA00F090FB0073
:101310002FE0E216F1040CF053C082E191E023D9F2
:101320008FEFE81AF80AF092FB00E092FA0041E031
:1013300050E0BE016B5E7F4F8BEE90E096D3F5CE12
:1013400081E48D8B61E4E0CF85E38D8B65E3DCCFB9
:1013500086E38D8B66E3D8CF82E48D8B62E4D4CFB5
:1013600087E38D8B67E3D0CF39E3C32ECD8A69E362
:10137000CBCF23E4D22EDD8A63E4C6CF9AE2E92EF6
:10138000ED8A6AE2C1CF3D8A509204016BEE70E0B3
:1013900080E690E061D3892B79F481EC90E0E7D985
:1013A000509203011092EB0081E890E0D4D9BDCEB9
:1013B00081E38D8B61E3A8CF8DEA90E0D8D9F2CF9D
:1013C00081EE90E0D4D9BCD91092EB001092FB00D2
:1013D0001092FA00AACEB4D98BEF90E0C8D910923F
:1013E0000401C9CE8A30910509F43DCEF5018193FF
:1013F0005F01FFEFEF1AFF0A23E1E216F10409F0A3
:101400000ACE31CE40D008F481E00895E89409C0B6
:1014100097FB3EF490958095709561957F4F8F4F27
:101420009F4F9923A9F0F92F96E9BB279395F6953D
:10143000879577956795B795F111F8CFFAF4BB0FBB
:1014400011F460FF1BC06F5F7F4F8F4F9F4F16C01F
:10145000882311F096E911C0772321F09EE8872FA9
:10146000762F05C0662371F096E8862F70E060E065
:101470002AF09A95660F771F881FDAF7880F9695DE
:10148000879597F90895990F0008550FAA0BE0E882
:10149000FEEF16161706E807F907C0F01216130636
:1014A000E407F50798F0621B730B840B950B39F476
:1014B0000A2661F0232B242B252B21F408950A26DC
:1014C00009F4A140A6958FEF811D811D08950BD0D1
:1014D00078C069D028F06ED018F0952309F05AC072
:1014E0005FC01124A2C07ED0A0F3959FD1F3950FC9
:1014F00050E0551F629FF001729FBB27F00DB11D98
:10150000639FAA27F00DB11DAA1F649F6627B00D27
:10151000A11D661F829F2227B00DA11D621F739F10
:10152000B00DA11D621F839FA00D611D221F749F1E
:101530003327A00D611D231F849F600D211D822F65
:10154000762F6A2F11249F5750408AF0E1F08823AC
:101550004AF0EE0FFF1FBB1F661F771F881F9150B9
:101560005040A9F79E3F510570F014C05EC05F3F28
:10157000ECF3983EDCF3869577956795B795F795EC
:10158000E7959F5FC1F7FE2B880F911D9695879574
:1015900097F9089597F99F6780E870E060E00895F3
:1015A0009FEF80EC089500240A941616170618067B
:1015B0000906089500240A94121613061406050657
:1015C0000895092E0394000C11F4882352F0BB0FE8
:1015D00040F4BF2B11F460FF04C06F5F7F4F8F4F4B
:1015E0009F4F089557FD9058440F551F59F05F3F86
:1015F00071F04795880F97FB991F61F09F3F79F035
:1016000087950895121613061406551FF2CF4695B6
:10161000F1DF08C0161617061806991FF1CF869538
:101620007105610508940895E894BB27662777271C
:10163000CB0197F90895052E97FB16F400940FD06F
:1016400057FD05D024D007FC02D046F408C05095C1
:101650004095309521953F4F4F4F5F4F089590959E
:101660008095709561957F4F8F4F9F4F089531D032
:10167000A59F900DB49F900DA49F800D911D1124E6
:101680000895B7FFF4CFF3DF821B930B0895A1E217
:101690001A2EAA1BBB1BFD010DC0AA1FBB1FEE1FEC
:1016A000FF1FA217B307E407F50720F0A21BB30B37
:1016B000E40BF50B661F771F881F991F1A9469F7B3
:1016C00060957095809590959B01AC01BD01CF010F
:1016D0000895A29FB001B39FC001A39F01D0B29F04
:1016E000700D811D1124911D08955058BB27AA2704
:1016F0000ED067CF58DF30F05DDF20F031F49F3F30
:1017000011F41EF44DCF0EF4E095E7FB43CFE92F23
:1017100069DF80F3BA17620773078407950718F02B
:1017200071F49EF581CF0EF4E0950B2EBA2FA02D0B
:101730000B01B90190010C01CA01A0011124FF277E
:10174000591B99F0593F50F4503E68F11A16F04079
:10175000A22F232F342F4427585FF3CF4695379578
:101760002795A795F0405395C9F77EF41F16BA0B3D
:10177000620B730B840BBAF09150A1F0FF0FBB1FEB
:10178000661F771F881FC2F70EC0BA0F621F731F34
:10179000841F48F4879577956795B795F7959E3F91
:1017A00008F0B3CF9395880F08F09927EE0F97951F
:1017B000879508950CD005CFFDDE40F0F4DE30F0C3
:1017C00021F45F3F19F0E6CE51112FCFE9CE0ADFA9
:1017D00098F39923C9F35523B1F3951B550BBB27F8
:1017E000AA2762177307840738F09F5F5F4F220FA5
:1017F000331F441FAA1FA9F333D00E2E3AF0E0E89E
:1018000030D091505040E695001CCAF729D0FE2FE9
:1018100027D0660F771F881FBB1F2617370748077B
:10182000AB07B0E809F0BB0B802DBF01FF27935831
:101830005F4F2AF09E3F510568F0ACCEF6CE5F3F79
:10184000ECF3983EDCF3869577956795B795F79519
:101850009F5FC9F7880F911D9695879597F9089511
:10186000E1E0660F771F881FBB1F621773078407AD
:10187000BA0720F0621B730B840BBA0BEE1F88F7BC
:10188000E095089504D06894B111CFCE0895B2DEEA
:1018900088F09F5790F0B92F9927B751A0F0D1F059
:1018A000660F771F881F991F1AF0BA95C9F712C0E3
:1018B000B13081F0B9DEB1E00895B6CE672F782F50
:1018C0008827B85F39F0B93FCCF38695779567954F
:1018D000B395D9F73EF490958095709561957F4FBB
:1018E0008F4F9F4F0895CFDD08F48FEF08950EF0CE
:1018F00047C056CE68944ECE7DDEC8F39923D1F30F
:10190000C6F3DF93CF931F930F93FF92C92FDD2769
:1019100088232AF02197660F771F881FDAF720E0C7
:1019200030E040E85FEB9FE3883920F0803E30F004
:1019300021968F77DBDEE6E2F0E003C0D7DEE3E559
:10194000F0E02CD08B01BE01EC01FB2E6F5771092A
:101950007595771F880B990B5BDD28E132E741E332
:101960005FE3C1DDAF2D9801AE01FF900F911F9194
:10197000CF91DF91CCDE25CE86DD880B990B0895C3
:101980009F3F31F0915020F4879577956795B795F3
:10199000880F911D9695879597F90895DF93CF93BA
:1019A0001F930F93FF92EF92DF927B018C0168945B
:1019B00005C0DA2EEF0197DDFE01E894A59125918F
:1019C000359145915591AEF3EF01A1DEFE019701EE
:1019D000A801DA9479F7DF90EF90FF900F911F91B3
:1019E000CF91DF910895991B79E004C0991F961754
:1019F00008F0961B881F7A95C9F78095089597FB84
:101A0000072E16F4009406D077FD08D00BD007FC03
:101A100005D03EF4909581959F4F089570956195FE
:101A20007F4F0895AA1BBB1B51E107C0AA1FBB1F14
:101A3000A617B70710F0A61BB70B881F991F5A955A
:101A4000A9F780959095BC01CD010895EE0FFF1F79
:101A50000590F491E02D0994FB01DC018D9101903A
:101A600080190110D9F3990B0895FB01DC010D9049
:101A70000020E9F711974150504028F001900020D4
:101A80000D92C9F708951C920895FB01DC014150A5
:101A9000504030F08D910190801919F40020B9F771
:101AA000881B990B0895FB01DC014150504048F020
:101AB00001900D920020C9F701C01D924150504085
:081AC000E0F70895F894FFCF50
:101AC8003132333400000000000000000000000044
:101AD800000000B30217024402180375025302679C
:101AE800020D0A00444F4F52204F70656E65640026
:101AF80054454D50203A006E616E00696E66006F65
:101B08007666004348414E47455F504153533A007B
:101B18004F50454E5F444F4F5200464143455F4446
:101B28004554454354454400464F5243455F4F5042
:101B3800454E0053484F575F5041535300444F4F51
:0A1B48005220436C6F7365640000C7
:00000001FF
