:10000000BBC0DFC0DEC0DDC0DCC0DBC072C5D9C094
:10001000D8C0CEC4D6C03BC515C5D3C0D2C0D1C090
:10002000D0C0CFC0CEC008000000BE922449123E0E
:10003000ABAAAA2ABECDCCCC4C3E00000080BEAB01
:10004000AAAAAA3E00000000BF000000803F0000F6
:10005000000000084178D3BB4387D1133D190E3C03
:10006000C3BD4282AD2B3E68EC8276BED98FE1A93A
:100070003E4C80EFFFBE01C4FF7F3F000000000048
:100080004C49474854204C4556454C3A2000506155
:100090007373776F7264204368616E676564205381
:1000A00075636365737366756C6C792E00496E6356
:1000B0006F72726563742050617373776F72642E10
:1000C0000050617373776F726420436F727265635F
:1000D000742E204F70656E696E6720446F6F722EAC
:1000E0000050617373776F7264206C656E6774681B
:1000F00020657863656564656421005741524E4907
:100100004E47212057524F4E472050415353574F8F
:10011000524420454E544552454421000000000001
:100120003700340031000000000038003500320094
:10013000040404040404040402020202020203038D
:10014000030303030202030102040810204080019C
:100150000204081020010204081020408040000022
:10016000000000000000000405070000000000007F
:10017000000000000000270611241FBECFE5D4E0D8
:10018000DEBFCDBF10E0A0E6B0E0E6E1FAE102C0DC
:1001900005900D92A43DB107D9F721E0A4EDB0E0A0
:1001A00001C01D92A13CB207E1F710E0CCEBD0E01A
:1001B00003C02197FE01F1DBCB3BD107D1F7A2D5DC
:1001C00028CC1ECF8F929F92AF92BF92FF920F9337
:1001D0001F93CF93DF93F090BE012BE02F1508F40F
:1001E0004AC02091C00108E512E0021B110927FD59
:1001F0001395000F111F000F111F2091BF01C8E8B8
:10020000D0E0C21BD10927FDD395CC0FDD1FCC0F49
:10021000DD1F4E010D2E000CAA08BB089801012E0F
:10022000000C440B550B281939094A095B09DC01FC
:10023000C3D924EB30E040E050E098D9820E931E01
:10024000A41EB51E8C169D062CF0E80180169106A2
:100250000CF4E4012297CC0FDD1F2FB7F8948F2DFB
:1002600090E0FC01EE0FFF1FE80FF91FE756FE4F6D
:10027000D283C1832FBFDF91CF911F910F91FF9048
:10028000BF90AF909F908F90089590E0FC01E25A4C
:10029000FE4F3491FC01E95BFE4F2491FC01E05DCF
:1002A000FE4FE491EE23E1F0332349F03530C9F0FD
:1002B0003730D1F0343019F48FB58F778FBDF0E03F
:1002C000EE0FFF1FEA5DFE4FA591B4918FB7F89432
:1002D00061110EC09C91E22FE095E923EC938FBF52
:1002E00008958FB58F7DEACF85B58F7D85BDE7CF2A
:1002F000EC91E22BF3CFCF93DF9390E0FC01E95B2D
:10030000FE4F2491805D9E4FFC0184918823D1F0A3
:1003100090E0880F991FFC01E45EFE4FA591B49117
:10032000FC01EA5DFE4FC591D49161110EC09FB7EB
:10033000F8948C91E22FE0958E238C932881E22310
:10034000E8839FBFDF91CF9108958FB7F894EC9128
:10035000E22BEC938FBFF6CF8E50806487B9369A2C
:100360003699FECF84B195B108953FB7F894809146
:10037000F8009091F900A091FA00B091FB0022B72B
:1003800008B600FE05C02F3F19F00196A11DB11D52
:100390003FBFBA2FA92F982F8827BC01CD01620F2C
:1003A000711D811D911D42E0660F771F881F991FE7
:1003B0004A95D1F708958F929F92AF92BF92CF92B4
:1003C000DF92EF92FF924B015C01CFDF6B017C016A
:1003D000CCDF6C197D098E099F09683E7340810549
:1003E0009105B0F321E0821A9108A108B10888EEC6
:1003F000C80E83E0D81EE11CF11C81149104A104F5
:10040000B10431F7FF90EF90DF90CF90BF90AF90A5
:100410009F908F9008952FB7F8946091F400709199
:10042000F5008091F6009091F7002FBF0895AF92EC
:10043000BF92CF92DF92EF92FF920F931F93CF93D1
:10044000DF936C017B018B01040F151FEB015E0133
:10045000AE18BF08C017D10759F06991D601ED91C8
:10046000FC910190F081E02DC6010995892B79F767
:10047000C501DF91CF911F910F91FF90EF90DF9019
:10048000CF90BF90AF900895FC01538D448D252FE0
:1004900030E0842F90E0821B930B541710F0CF961E
:1004A000089501970895FC01918D828D981761F050
:1004B000A28DAE0FBF2FB11D5D968C91928D9F5F67
:1004C0009F73928F90E008958FEF9FEF0895FC0146
:1004D000918D828D981731F0828DE80FF11D858DF9
:1004E00090E008958FEF9FEF0895FC01918D228D8C
:1004F000892F90E0805C9F4F821B91098F73992711
:1005000008958CEF90E0F1DF21E0892B09F420E0E1
:10051000822F089580E090E0892B19F0F2DF81119D
:100520006FCD0895FC01A48DA80FB92FB11DA35A5A
:10053000BF4F2C91848D90E001968F739927848F03
:10054000A689B7892C93A089B1898C9182748C93E8
:10055000938D848D981306C00288F389E02D8081E5
:100560008F7D80830895EF92FF920F931F93CF9317
:10057000DF93EC0181E0888F9B8D8C8D981319C0DF
:10058000E889F989808185FF14C09FB7F894EE89C6
:10059000FF896083E889F9898081827480839FBFA5
:1005A00081E090E0DF91CF911F910F91FF90EF904C
:1005B0000895F62E0B8D10E00F5F1F4F0F7311275C
:1005C000E02E8C8D8E110BC00FB607FCFACFE88998
:1005D000F989808185FFF5CFCE01A4DFF2CFEB8DC5
:1005E000EC0FFD2FF11DE35AFF4FF0829FB7F894F7
:1005F0000B8FEA89FB8980818062D0CF0F931F9394
:10060000CF93DF938C01D0E0C0E0F801EC0FFD1F29
:100610006491662339F08CEF90E0A5DF892B11F00F
:100620002196F3CFCE01DF91CF911F910F910895C5
:10063000CF93DF93EC01888D8823B1F0AA89BB8921
:10064000E889F9898C9185FD03C0808186FD0CC005
:100650000FB607FCF7CF8C9185FFF2CF808185FF25
:10066000EDCFCE015FDFEACFDF91CF91089561E05A
:1006700083E00BDE64EF71E080E090E09CDE60E000
:1006800083E003CEFC0101900020E9F73197AF0130
:10069000481B590BBC018CEF90E0C9CECF93DF9380
:1006A000ADDFEC0183E890E0EDDF8C0F9D1FDF9163
:1006B000CF9108958F929F92AF92BF920F931F9305
:1006C000CF93DF93CDB7DEB7A1970FB6F894DEBF17
:1006D0000FBECDBF19A2423008F44AE08E010F5D73
:1006E0001F4F842E912CB12CA12CA50194016AD707
:1006F000E62FB901CA01EA30ECF4E05DD801EE93CF
:100700008D01232B242B252B81F790E080E010977F
:1007100011F0CD01B7DFA1960FB6F894DEBF0FBE82
:10072000CDBFDF91CF911F910F91BF90AF909F9060
:100730008F900895E95CE2CFCF92DF92EF92FF9223
:10074000CF93DF9380E108DEEC0180E890E056DF94
:100750006E010D2E000CEE08FF084AE0C701B6013D
:10076000F7FE0CC06DE28CEF90E0FDDE6627772788
:10077000CB016C197D098E099F094AE09BDF83E854
:1007800090E080DF9E01A1E0BFEFE7D82FEF33E0DC
:1007900040E050E0EBD669017A018FEFC80ED11C22
:1007A000E11CF11CE60161E088E0A5DD209749F439
:1007B00060E088E0DF91CF91FF90EF90DF90CF90E5
:1007C00064CDCF3FD10511F461E0F3CFE6E6F1E06F
:1007D000E491E53081F0E730A1F0E430B9F48FB571
:1007E00080688FBDDBBCCABCDF91CF91FF90EF90DA
:1007F000DF90CF9008958FB580628FBDD9BCC8BC03
:10080000F3CF85B5806285BDC3BCEECFC038D105BE
:10081000DCF6CECF4F925F926F927F928F929F9233
:10082000AF92BF92CF92DF92EF92FF926B017C0169
:1008300086E890E027DFA7019601C701B60137D807
:10084000882311F18DE890E01DDF20E030E040EFDB
:1008500051E4C701B601E2D718160CF093C060E06E
:1008600084E113DD61E08DE010DD60E085E1FF9063
:10087000EF90DF90CF90BF90AF909F908F907F9040
:100880006F905F904F9001CD46015701E894B7F803
:100890002FEF3FEF4FE75FE7C501B40108D88111A3
:1008A0000CC02FEF3FEF4FE75FE7C501B40145D51F
:1008B00018161CF481E990E0C7CF2FEF3FEF4FE708
:1008C0005FE4C701B601AAD718161CF485E990E0C9
:1008D000BBCF2FEF3FEF4FE75FECC701B6012DD540
:1008E00087FDF4CF20E030E0A901C701B60125D58E
:1008F00087FF45C06DE28CEF90E035DEC701B601A1
:1009000090582AE037ED43EA5BE38BD62B013C019C
:1009100059D74B015C0115D59B01AC01C301B20154
:100920007FD62B013C014AE0C501B401C3DE6EE273
:100930008CEF90E018DE20E030E040E251E4C301AB
:10094000B20160D52B013C013DD74B01B12CA12C4C
:100950004AE0C501B401AEDEC501B401F2D49B0189
:10096000AC01C301B2015CD620E030E040E251E4CA
:1009700049D528D790E080E04AE09CDE66CFC701E9
:10098000B601BFCF20E030E040EA51E4C701B60134
:1009900045D718162CF461E084E177DC60E063CF82
:1009A00060E084E172DC60E08DE06FDC61E05ECFEE
:1009B0001F920F920FB60F9211242F933F938F9394
:1009C0009F93AF93BF938091F4009091F500A09115
:1009D000F600B091F7003091F30023E0230F2D379C
:1009E00068F126E8230F0296A11DB11D2093F300A4
:1009F0008093F4009093F500A093F600B093F70075
:100A00008091F8009091F900A091FA00B091FB005C
:100A10000196A11DB11D8093F8009093F900A09359
:100A2000FA00B093FB00BF91AF919F918F913F91DE
:100A30002F910F900FBE0F901F9018950196A11D3A
:100A4000B11DD4CF1F920F920FB60F9211242F9386
:100A50003F934F935F936F937F938F939F93AF9346
:100A6000BF93EF93FF938CEF90E05CDDFF91EF91EC
:100A7000BF91AF919F918F917F916F915F914F91B6
:100A80003F912F910F900FBE0F901F9018951F92BE
:100A90000F920FB60F9211242F938F939F93EF9382
:100AA000FF93E0910C01F0910D018081E091120122
:100AB000F091130182FD1BC09081809115018F5F21
:100AC0008F7320911601821741F0E0911501F0E03B
:100AD000E450FF4F958F80931501FF91EF919F9107
:100AE0008F912F910F900FBE0F901F9018958081BE
:100AF000F4CF1F920F920FB60F9211242F933F93B2
:100B00004F935F936F937F938F939F93AF93BF9315
:100B1000CF93DF93EF93FF938091D400C091BD01F9
:100B2000D0E087FF1EC01DBC1CBC8091D4008F5F2D
:100B30008093D4008091D400082E000C990B8C1760
:100B40009D0724F48091D4008C309CF18CB59DB528
:100B5000049680349C4908F472C08CB59DB5049607
:100B600070C08091D400082E000C990B8C179D0743
:100B7000E4F6E091D4008E2FEE0F990BFC01EE0FFE
:100B8000FF1FE80FF91FE756FE4F808186FFCDCF8C
:100B9000E091D4008E2FEE0F990BFC01EE0FFF1F9A
:100BA000E80FF91FE756FE4F808160E08F736DDB21
:100BB000BCCF2CB53DB5E091D4008E2FEE0F990B34
:100BC000FC01EE0FFF1FE80FF91FE756FE4F818172
:100BD0009281820F931F9BBD8ABDE091D4008E2F1E
:100BE000EE0F990BFC01EE0FFF1FE80FF91FE75600
:100BF000FE4F808186FF10C0E091D4008E2FEE0F53
:100C0000990BFC01EE0FFF1FE80FF91FE756FE4F8F
:100C1000808161E08F7339DBFF91EF91DF91CF919C
:100C2000BF91AF919F918F917F916F915F914F9104
:100C30003F912F910F900FBE0F901F90189580E459
:100C40009CE99BBD8ABD8FEF8093D400E5CF1092C5
:100C5000FF001092FE0088EE93E0A0E0B0E08093E9
:100C6000000190930101A0930201B093030185E775
:100C700090E09093FD008093FC0080E490E09093DE
:100C800009018093080129E230E030930B012093A1
:100C90000A012BE230E030930D0120930C012AE28F
:100CA00030E030930F0120930E0190931101809357
:100CB00010018CE290E09093130180931201109246
:100CC00015011092160110921701109218018091CF
:100CD000BD018C3098F491E0980F9093BD01809302
:100CE000BE0190E0FC01EE0FFF1FE80FF91FE75671
:100CF000FE4F88EB9BE09283818308958FEF809372
:100D0000BE010895CF93DF93CDB7DEB765970FB6D9
:100D1000F894DEBF0FBECDBF789483B7836083BFE6
:100D200089B7816089BF82E08EBD8EB581608EBD3E
:100D30008FB581608FBD85B5846085BD85B58064C4
:100D400085BD87E886B91AB861E088E0D4DA61E049
:100D500089E0D1DA61E08CE0CEDA60E08EE0CBDAD7
:100D600061E088E0C8DA61E08DE0C5DA61E085E144
:100D7000C2DA61E084E1BFDA60E080E1BCDA60E021
:100D800082E1B9DA61E083E0B6DA60E088E07DDA3A
:100D90008091BE018C3008F04BC061E08AE0ABDA94
:100DA0008091BE01282F30E0F901EE0FFF1FE20F06
:100DB000F31FE756FE4F9081907C9A6090831092CB
:100DC000BF011092C0012CE0622FA8D5829FB00114
:100DD000112430E020E0AB01420F531FFA01EE0F67
:100DE000FF1FE40FF51FE756FE4F908196FD12C0DE
:100DF0002F5F3F4F2C30310571F781110BC01FBCA5
:100E000082E08EBD1DBC1CBC88B7806188BF89B7DD
:100E1000806189BFE091BE018E2F90E0FC01EE0F52
:100E2000FF1FE80FF91FE756FE4F80818064808323
:100E3000E0910C01F0910D0182E08083E0910801C6
:100E4000F09109011082E0910A01F0910B018FEC01
:100E5000808310921401E0911001F091110186E855
:100E60008083E0910E01F0910F0180818869808379
:100E7000E0910E01F0910F0180818F7D808325E04C
:100E8000622E712C30E0832E30E0932E5524539443
:100E900044E4342E53E2452E98E3292E85E0E82ED3
:100EA000F12C10E000E081E157DA080F191F6AE029
:100EB00070E080E090E07FDA21E0E21AF10899F733
:100EC000C801B30137D50FEF1FEF61157105B1F1FF
:100ED000072E000C880B990B36D29B01AC0160E009
:100EE00070EC8FE794E401D420E030E040E85FE369
:100EF00097D39B01AC0160E070E48CE196E4F5D3FC
:100F000020E030E44CE156E4F0D391D420E030E42A
:100F100043E555E4EAD32FE03FEC4BE55BE381D3B7
:100F20009B01AC0160E070E080E89FE3DED323E347
:100F300033E948E853E474D340D48B018CEF90E05C
:100F4000D4DA892B09F44DC0AE014F5F5F4F5A01CF
:100F5000F12CE12C6A015FDA6093040170930501C2
:100F600080930601909307018CEF90E09CDA97FF45
:100F7000D4C151DA2091040130910501409106015C
:100F800050910701621B730B840B950B209100019C
:100F900030910101409102015091030162177307E2
:100FA0008407950708F3F601EE0DFF1D10824CE053
:100FB00050E069E970E0C6010FD5892B09F06BC0DC
:100FC0004EE050E0BE01635F7F4F82E690E012D5B5
:100FD000109270008EE890E061DB1092D9001092C0
:100FE000F1008EE0B9D97C0116DA209160003091D1
:100FF0006100A701421B530B9A0157FF03C03195B3
:101000002195310925313105B4F42091D500309175
:10101000D6004091D7005091D8005B016C01A21A14
:10102000B30AC40AD50AA60195012739310541053D
:10103000510508F4E6C0F0926100E0926000609310
:10104000D5007093D6008093D7009093D8002FE1FD
:10105000E216F1040CF049C081E38D8B61E3E0906E
:10106000E800F090E900FFE0EF16F1040CF041C158
:101070008CEF90E078DA2FEFE21AF20AF092E900B2
:10108000E092E80041E050E0BE016B5E7F4F89EDE9
:1010900090E092D4B6C066EA70E0C60184D4892B91
:1010A00021F48AE590E08ED89CCF60EB70E0C60119
:1010B0007AD4892B19F45092EB0093CF6EEB70E049
:1010C000C60171D4892B19F45092EA008ACF69ECD9
:1010D00070E0C60168D4892B09F083CF82E690E0E6
:1010E000D1DA83E890E0CEDA7CCF44E6E416F1046E
:1010F00024F482E38D8B62E3B2CF5BEAE516F10460
:1011000024F483E38D8B63E3AACF87EEE816F10422
:1011100024F481E48D8B61E4A2CF91E4E91691E09F
:10112000F90624F484E38D8B64E399CFEFE5EE16A2
:10113000E1E0FE0624F485E38D8B65E390CFF1E9D1
:10114000EF16F1E0FF0624F486E38D8B66E387CF8C
:101150002FEAE21621E0F20624F482E48D8B62E4A9
:101160007ECF4BEEE41641E0F40624F487E38D8B4A
:1011700067E375CF59E0E51652E0F5061CF42D8AB9
:1011800068E36DCF82E2E81682E0F80624F499E382
:101190009D8B69E364CFE0E4EE16E2E0FE0624F402
:1011A000F3E4FD8B63E45BCF2DE5E21622E0F2066B
:1011B00024F44AE24D8B6AE252CF51E7E51652E041
:1011C000F50624F480E38D8B60E349CF95E8E916BA
:1011D00092E0F9060CF080C04D8A5092F20069ED61
:1011E00070E082E690E0DFD3892B09F07EC081ECCD
:1011F00090E054DA5092F1001092D90083E890E028
:1012000041DA8091F2008823F9F08091F10088237F
:1012100009F47AC08091F00081110BC0FCD8609372
:10122000EC007093ED008093EE009093EF005092ED
:10123000F0008AE590E0C6D77FDAB801012E000CF5
:10124000880B990B80D0E6DA8091EB00811104C005
:101250008091EA008823A1F08AE590E0B3D76CDAA8
:10126000B801110F880B990B6ED0D4DA8091EB0086
:1012700081111092EB008091EA0081111092EA0036
:101280008091F0008823F1F0C6D80091EC00109115
:10129000ED002091EE003091EF00601B710B820B8E
:1012A000930B603177428105910560F090E080E01A
:1012B00089D760E088E0E9D71092F2001092F1003F
:1012C0001092F0008114910409F4E8CD1AD9882312
:1012D00009F4E2CD95D6E0CDE5E9EE16E2E0FE06B2
:1012E0000CF08FCF3D8A64E4BACE8DEA90E0D6D977
:1012F00083CF81EE90E0D2D9BAD91092D900109262
:10130000E9001092E8007DCFB2D98BEF90E0C6D90A
:101310001092F2001092F10097CF8A30910509F4F3
:1013200042CEF50181935F01FFEFEF1AFF0A23E13F
:10133000E216F10409F00FCE36CE40D008F481E079
:101340000895E89409C097FB3EF4909580957095B8
:1013500061957F4F8F4F9F4F9923A9F0F92F96E901
:10136000BB279395F695879577956795B795F11176
:10137000F8CFFAF4BB0F11F460FF1BC06F5F7F4F13
:101380008F4F9F4F16C0882311F096E911C0772325
:1013900021F09EE8872F762F05C0662371F096E82E
:1013A000862F70E060E02AF09A95660F771F881FFD
:1013B000DAF7880F9695879597F90895990F0008A1
:1013C000550FAA0BE0E8FEEF16161706E807F90717
:1013D000C0F012161306E407F50798F0621B730BB2
:1013E000840B950B39F40A2661F0232B242B252B33
:1013F00021F408950A2609F4A140A6958FEF811DD6
:10140000811D08950BD078C069D028F06ED018F0F7
:10141000952309F05AC05FC01124A2C07ED0A0F36A
:10142000959FD1F3950F50E0551F629FF001729F79
:10143000BB27F00DB11D639FAA27F00DB11DAA1F98
:10144000649F6627B00DA11D661F829F2227B00DE5
:10145000A11D621F739FB00DA11D621F839FA00D70
:10146000611D221F749F3327A00D611D231F849FC0
:10147000600D211D822F762F6A2F11249F57504017
:101480008AF0E1F088234AF0EE0FFF1FBB1F661FB2
:10149000771F881F91505040A9F79E3F510570F06B
:1014A00014C05EC05F3FECF3983EDCF38695779501
:1014B0006795B795F795E7959F5FC1F7FE2B880F66
:1014C000911D9695879597F9089597F99F6780E8FC
:1014D00070E060E008959FEF80EC089500240A9486
:1014E0001616170618060906089500240A941216FF
:1014F0001306140605060895092E0394000C11F432
:10150000882352F0BB0F40F4BF2B11F460FF04C0DE
:101510006F5F7F4F8F4F9F4F089557FD9058440F37
:10152000551F59F05F3F71F04795880F97FB991F42
:1015300061F09F3F79F087950895121613061406FF
:10154000551FF2CF4695F1DF08C01616170618068C
:10155000991FF1CF86957105610508940895E89467
:10156000BB2766277727CB0197F90895052E97FBB0
:1015700016F400940FD057FD05D024D007FC02D0FC
:1015800046F408C050954095309521953F4F4F4FF8
:101590005F4F089590958095709561957F4F8F4F1F
:1015A0009F4F089531D0A59F900DB49F900DA49F9B
:1015B000800D911D11240895B7FFF4CFF3DF821B36
:1015C000930B0895A1E21A2EAA1BBB1BFD010DC0AF
:1015D000AA1FBB1FEE1FFF1FA217B307E407F507E3
:1015E00020F0A21BB30BE40BF50B661F771F881FBF
:1015F000991F1A9469F760957095809590959B0155
:10160000AC01BD01CF010895A29FB001B39FC001FD
:10161000A39F01D0B29F700D811D1124911D0895CB
:101620005058BB27AA270ED067CF58DF30F05DDFB8
:1016300020F031F49F3F11F41EF44DCF0EF4E095ED
:10164000E7FB43CFE92F69DF80F3BA17620773071F
:101650008407950718F071F49EF581CF0EF4E0959C
:101660000B2EBA2FA02D0B01B90190010C01CA015C
:10167000A0011124FF27591B99F0593F50F4503E07
:1016800068F11A16F040A22F232F342F4427585FF9
:10169000F3CF469537952795A795F0405395C9F711
:1016A0007EF41F16BA0B620B730B840BBAF09150C9
:1016B000A1F0FF0FBB1F661F771F881FC2F70EC068
:1016C000BA0F621F731F841F48F48795779567953B
:1016D000B795F7959E3F08F0B3CF9395880F08F024
:1016E0009927EE0F9795879508950CD005CFFDDECD
:1016F00040F0F4DE30F021F45F3F19F0E6CE5111F6
:101700002FCFE9CE0ADF98F39923C9F35523B1F31C
:10171000951B550BBB27AA2762177307840738F060
:101720009F5F5F4F220F331F441FAA1FA9F333D0BF
:101730000E2E3AF0E0E830D091505040E695001C73
:10174000CAF729D0FE2F27D0660F771F881FBB1F2F
:10175000261737074807AB07B0E809F0BB0B802D09
:10176000BF01FF2793585F4F2AF09E3F510568F055
:10177000ACCEF6CE5F3FECF3983EDCF386957795E2
:101780006795B795F7959F5FC9F7880F911D969557
:10179000879597F90895E1E0660F771F881FBB1FB3
:1017A000621773078407BA0720F0621B730B840B60
:1017B000BA0BEE1F88F7E095089504D06894B11134
:1017C000CFCE0895B2DE88F09F5790F0B92F9927B9
:1017D000B751A0F0D1F0660F771F881F991F1AF03C
:1017E000BA95C9F712C0B13081F0B9DEB1E0089501
:1017F000B6CE672F782F8827B85F39F0B93FCCF382
:10180000869577956795B395D9F73EF49095809531
:10181000709561957F4F8F4F9F4F0895CFDD08F4EE
:101820008FEF08950EF047C056CE68944ECE7DDE01
:10183000C8F39923D1F3C6F3DF93CF931F930F938C
:10184000FF92C92FDD2788232AF02197660F771F83
:10185000881FDAF720E030E040E85FEB9FE388394B
:1018600020F0803E30F021968F77DBDEE6E2F0E07C
:1018700003C0D7DEE3E5F0E02CD08B01BE01EC0124
:10188000FB2E6F5771097595771F880B990B5BDDE0
:1018900028E132E741E35FE3C1DDAF2D9801AE01FE
:1018A000FF900F911F91CF91DF91CCDE25CE86DD89
:1018B000880B990B08959F3F31F0915020F4879544
:1018C00077956795B795880F911D9695879597F9A8
:1018D0000895DF93CF931F930F93FF92EF92DF92C0
:1018E0007B018C01689405C0DA2EEF0197DDFE01C3
:1018F000E894A5912591359145915591AEF3EF016D
:10190000A1DEFE019701A801DA9479F7DF90EF904C
:10191000FF900F911F91CF91DF910895991B79E06E
:1019200004C0991F961708F0961B881F7A95C9F76F
:101930008095089597FB072E16F4009406D077FD46
:1019400008D017D007FC05D03EF4909581959F4FA5
:101950000895709561957F4F089556DE332312F4F4
:101960008A1B9B0B01C050DEB7FF0895821B930BAF
:101970000895AA1BBB1B51E107C0AA1FBB1FA617D6
:10198000B70710F0A61BB70B881F991F5A95A9F728
:1019900080959095BC01CD010895EE0FFF1F059035
:1019A000F491E02D0994FB01DC018D9101908019E7
:1019B0000110D9F3990B0895FB01DC010D90002073
:1019C000E9F711974150504028F0019000200D9206
:1019D000C9F708951C920895FB01DC014150504065
:1019E00030F08D910190801919F40020B9F7881B0F
:1019F000990B0895FB01DC014150504048F00190E3
:101A00000D920020C9F701C01D9241505040E0F7EF
:061A10000895F894FFCFD9
:101A1600FFFF3132333400000000000000000000F8
:101A26000000000000B302170244021803750253B7
:101A36000267020D0A0054454D50203A006E616E51
:101A460000696E66006F7666004348414E47455F03
:101A5600504153533A004F50454E5F444F4F52004A
:101A6600464143455F444554454354454400464F2B
:101A76005243455F4F50454E0053484F575F5041C4
:041A860053530000B6
:00000001FF
